:020000040800F2
:100000004816002015020008D5420008833F00086A
:1000100000000000000000000000000000000000E0
:100020000000000000000000000000002145000862
:1000300000000000000000009B0100082D450008A2
:100040004502000845020008450200084502000874
:100050004502000845020008450200084502000864
:10006000450200084516000845020008551600081C
:100070004502000845020008450200084502000844
:1000800045020008000000000000000045020008D2
:100090000000000045020008B145000845020008C4
:1000A0000000000045020008450200084502000863
:1000B000494B000800000000E51400084502000854
:1000C00000F002F800F03EF80CA030C80838241800
:1000D0002D18A246671EAB4654465D46AC4201D180
:1000E00000F030F87E460F3E0FCCB6460126334274
:1000F00000D0FB1AA246AB46334318479458000081
:10010000B4580000103A02D378C878C1FAD8520720
:1001100001D330C830C101D504680C6070470000BD
:100120000023002400250026103A01D378C1FBD813
:10013000520700D330C100D50B6070471FB51FBDFB
:1001400010B510BD00F052FF1146FFF7F7FF04F0A5
:1001500077FD00F06AFF03B4FFF7F2FF03BC00F085
:100160009FFF0000084B19680868203080F3098859
:10017000022080F31488BFF36F8F3FBCAE4608BCEB
:1001800004BC62B61847000060000020EFF3108046
:1001900072B6704780F310887047EFF309800E4BFA
:1001A0001A6820381060F0C044464D4656465F46F7
:1001B000F0C008B572B605F065F862B60CBC1168FF
:1001C00008681030F0C8A046A946B246BB4680F386
:1001D00009882038F0C818476000002070B505462F
:1001E0000C46164602E00FCC0FC5103E102EFAD278
:1001F000082E02D303CC03C5083E042E07D301CC3E
:1002000001C5361F03E021782970641C6D1C761E21
:10021000F9D270BD0F4880F308880F480168090EB5
:100220000E4A914205D10E480E4901600E480F4911
:1002300001600F4880470F480047FEE7FEE7FEE7F2
:10024000FEE7FEE7FEE700000B480C490C4A0D4BA9
:100250007047000048160020040000001F00000046
:1002600018100240010000000000014000000000E2
:10027000AD450008C1000008480E002048160020C7
:100280004810002048100020FEB5054610460C46D8
:10029000184373D0AE468C460020AD1A01469C41EF
:1002A00067D36646002701243D46B61A9D4102D316
:1002B00013463A462124654676462F04360C3E43C3
:1002C0002D0CB61A9D4104D3150C1B042B431204AC
:1002D0001034654676462F06360A3E432D0AB61A76
:1002E0009D4104D3150E1B022B43120208346546B0
:1002F00076462F0736093E432D09B61A9D4104D391
:10030000150F1B012B431201241D65467646AF07CE
:10031000B6083E43AD08B61A9D4104D3950F9B0025
:100320002B439200A41C65467646EF0776083E43B1
:100330006D08B61A9D411AD392185B41641C16E0F1
:100340000018764665464941B71A9D4101910090D3
:1003500009D36046B11A98418E46844600980199A7
:100360000025401C6941DD0752082A435B08641ED2
:10037000E6D57246634603B0F0BDFFE700200146B4
:10038000C046C0462A462346F5E701E004C0091FDF
:100390000429FBD28B0701D50280801CC90700D03D
:1003A0000270704700290BD0C30702D00270401CB6
:1003B000491E022904D3830702D50280801C891EAE
:1003C000E3E70022EEE70022DFE7002203098B4289
:1003D00073D3030A8B4258D3030B8B423CD3030CD9
:1003E0008B4221D312E003460B437FD40022430803
:1003F0008B4274D303098B425FD3030A8B4244D3ED
:10040000030B8B4228D3030C8B420DD3FF2209022E
:1004100012BA030C8B4202D31212090265D0030BED
:100420008B4219D300E0090AC30B8B4201D3CB03E3
:10043000C01A5241830B8B4201D38B03C01A524125
:10044000430B8B4201D34B03C01A5241030B8B4227
:1004500001D30B03C01A5241C30A8B4201D3CB0212
:10046000C01A5241830A8B4201D38B02C01A5241F7
:10047000430A8B4201D34B02C01A5241030A8B42FA
:1004800001D30B02C01A5241CDD2C3098B4201D312
:10049000CB01C01A524183098B4201D38B01C01A90
:1004A000524143098B4201D34B01C01A5241030907
:1004B0008B4201D30B01C01A5241C3088B4201D3B6
:1004C000CB00C01A524183088B4201D38B00C01A63
:1004D000524143088B4201D34B00C01A5241411A8A
:1004E00000D201465241104670475DE0CA0F00D06D
:1004F0004942031000D34042534000229C46030966
:100500008B422DD3030A8B4212D3FC22890112BAEB
:10051000030A8B420CD3890192118B4208D38901C3
:1005200092118B4204D389013AD0921100E08909DB
:10053000C3098B4201D3CB01C01A524183098B42BC
:1005400001D38B01C01A524143098B4201D34B01A5
:10055000C01A524103098B4201D30B01C01A524108
:10056000C3088B4201D3CB00C01A524183088B428F
:1005700001D38B00C01A5241D9D243088B4201D318
:100580004B00C01A5241411A00D201466346524103
:100590005B10104601D34042002B00D54942704702
:1005A00063465B1000D3404201B50020C046C04600
:1005B00002BD704770477047F0B5F94D0C091E0930
:1005C0002C402E402F468BB0A7437DD0B543FCD0A6
:1005D000002E7AD0002CFCD00D465D40ED0F254357
:1005E000AC1BFF25AD0464190894C502440DC90273
:1005F0002143500DDC0204430120C00701430443A2
:10060000D2020191200C110C00958C460104234666
:100610008B430A9161460904E24D8A430991010A1C
:100620007D4449198039097805464D4301266D18E6
:10063000F605751B6943C90C640B891C4C4364188F
:10064000B5012C1B250C2E04B4434C434D43210C07
:10065000691889090591009DE90701D00121C907A1
:1006600004912C4601996708CD072F434C08059D3E
:10067000E10B4D432D0C29466646754302950D4608
:1006800045432E46029D7D1BB44100950D465D43BA
:1006900001942C0C2F040D465543AE462D0C3D43C2
:1006A000029503947546049C2D04641B049406D2A1
:1006B000029C039D641C002675410395029401ACC5
:1006C00070CC009F7D1B01E03EE162E1B441090472
:1006D0000095079101940599A4086143090C0C4603
:1006E0004443650BE7040C4666467443A646640B18
:1006F0003C43039502947446049DE4042C1B04942B
:1007000006D2029C039D641C002675410395029449
:1007100001AC70CC009F7D1BB44101940C465C433E
:100720000095650FE7000C465443A646640F3C4312
:10073000039502947446049DE4002C1B049406D295
:10074000029C039D641C002675410395029401AC34
:1007500070CC009F7D1BB441AE09AF06049DC9005B
:10076000AD092F43049DA406AD060495079D3443AF
:1007700069180791059DE10B4D432D0C29466646EE
:10078000754302950D4645432E46029D7D1BB4419F
:1007900000950D465D4301942C0C2F040D465543E6
:1007A000AE462D0C3D43029503947546049C2D04E2
:1007B000641B049406D2029C039D641C00267541B0
:1007C0000395029401AC70CC009F7D1BB441019451
:1007D0008C050694079C890A611800950791019C75
:1007E0000599A4086143090C0D464543680BEF04C5
:1007F0000D46644665436C0B3C43049FED047D1B32
:10080000AC4602D20025641C6841009E019D371B46
:1008100085410846584301950C46460FC500544390
:10082000600F28436546E4002C1B02D20025401CC3
:100830006E41019D3F1AB5412846BD0980062843F7
:100840008446A009BF064E020699A40676180743FF
:10085000079D002068410A99079019430020099BD1
:1008600000906046FF1913434041E20F64003A4391
:10087000A4460446D71A8C41A04203D90120009017
:1008800020463A46C70F941840416246D20F224391
:10089000644664000494009CBE466400D71AA446D3
:1008A000044602978C417746002F01D1A04204D91B
:1008B0006046401C8446029A2046C40FA6469418FF
:1008C0004041049A0546D20F224364466400D31A7D
:1008D0008D417146002901D1A84202D928461A4605
:1008E000641C10430122002800D01643610200203E
:1008F000079B891904465C410223002C02DB49183E
:1009000013466441089DCE0A2D145D194B056705F9
:10091000E10A2C050D1908993E43C9076940002BCF
:1009200008D0934006D30022761C5141002B01D100
:10093000760876001C4A002D43DB154241D0AA43BD
:100940003FD030460BB0F0BD06180D464D41174C58
:100950007642AC411AD395181C465C41134A6D424D
:10096000A24113D3012252054C00D4420AD15C00AB
:10097000D4420BD04B4002D592021143E2E749002A
:100980004908DFE75940C90FC90718E000200849A6
:10099000D8E7054801420DD10342F7D0F2E7000045
:1009A0000000FF077C5200000000F07F0000E0FF25
:1009B0000000F87F114859400143C0124140002017
:1009C000C0E70123089A9B069A4205DC03225207DE
:1009D0008918C90FC907B5E7052252078918074AC0
:1009E0001143D2125140ADE770B515461C46024680
:1009F0000B4628462146FFF7DFFD70BDFFFFFF7F56
:100A00000346CA02400D10B510430A1504D0012454
:100A1000E4072043002A05DB0A4CA21A04D4D04084
:100A2000FF2A00DD002010BD4A00002B01D001206C
:100A300000E00020101801225205D042F2D8C81759
:100A4000C04310BD1E040000F0B58B4C0F092546B5
:100A500089B0BD437BD01D092646AE43FAD00E4671
:100A60005E402740F60F3E43254071D024012142CD
:100A7000FBD0FF24AD19A4042D1B039501252D05E2
:100A8000DB02DB0AC9022B43C90A29431E01090103
:100A9000040F130F050121431701880B82039143B3
:100AA0002D098C46A90B1E438A039543B30B9A0369
:100AB00096433F09BA0B9403A74302962E467E4302
:100AC0000497B6464E19D7190C460196544305971C
:100AD0007E43371B7646BF1B3601B646BE0B361922
:100AE00000967646BC043719009C01D3641C009420
:100AF0006400002F01D001263443029E049F7543F9
:100B000066467E430496760034196E0034190094CC
:100B1000029C019E1C196643751BAE4606946546F1
:100B20004519059C05956C43594375460891691A0A
:100B30000191049E01465143A41B0491611A009C3B
:100B40000791E10605D061090122114302E072E03C
:100B50006EE06109089D00272C0A2D066918049D86
:100B60007C412A0A2D066918019D6241AC0DAD0237
:100B70006D185441079A910D920255196141029ADC
:100B8000644658435443069B059A5A43121A131B52
:100B90009A0E9B015B187A41010B0005C318514165
:100BA000220A200644195A419A4200D2491C0120C7
:100BB0004002814203D315230226F64302E01423A8
:100BC0000326F6432020C51AA9401746AF40DA4055
:100BD0000A4320460399D84009147318190551187F
:100BE000039A3843D2075140AC4009D001229440C7
:100BF00006D30022401C5141002C01D14008400086
:100C00001E4A934212D3012203989206904207DBB8
:100C10000520400709181A480143C012414004E06A
:100C2000032040070818C10FC907002009B0F0BD14
:100C30000020F107FAE705180C464C4111486D42B7
:100C4000A04115D394181A465A410E486442904167
:100C50000ED301204A004005824209D35A00824245
:100C600006D35940C90F084AC90700201143DDE7E0
:100C700000200649DAE700000000FF07FE07000039
:100C8000FFFFFF7F0000E0FF0000F07F0000F87F23
:100C90000121C9050123411842001B06D3185B0E30
:100CA0000AD0C1100722D206891840075242D14209
:100CB00001D5520089187047090208D50146002A5B
:100CC00003D0C10FC9070020704710467047420289
:100CD00002D0002002497047072109050143F4E7CB
:100CE0000000F87FF0B5FF252D04C609C209FF27D3
:100CF00004462E400137CB093E4348402A402B4052
:100D00000746002A6BD0002B69D0AA4267D0AB42BD
:100D100065D0002800DA32460125ED0529432C4331
:100D200009022002090AD21A4B0C7F24E31A434C11
:100D3000000A7C44E35C7D242404121914145B0033
:100D4000A218884201D3521C00E0400049420C46E0
:100D50005C4324115C43DB016415E318040A5C4323
:100D6000C502200D0C4644436419250A5D43230344
:100D7000EC0C0D46654300030019EB184C42A342EE
:100D800001D35B18401CD4052018002B07D05B0052
:100D9000C91804D3401C002901D1400840003F215C
:100DA00089048A4209D3002A08DC1106090F04D0FD
:100DB000032149074018C00FC007F0BD01224100C0
:100DC000120689187F2252069142F6D20521490760
:100DD000C84201D59010F0BDFF20C005F0BD002F26
:100DE00000DA32461648AA4207D2AB4205D21902AF
:100DF000090E17D0F80FC007F0BDFF2563002D06C0
:100E0000AB42F9D84900A942F6D8AB4201D1A94278
:100E1000F2D0A94201D1002101E061004908D005CA
:100E20000843F0BD1102090EFBD0FF200243D0059C
:100E3000F0BD0A460146104654E70000EA4B0000A8
:100E40000000C07F1F22030C02D10F2200041CD01F
:100E5000030E01D10002083A030F01D10001121F55
:100E6000830F01D18000921E002801DB4000521E3A
:100E7000D2055118021251181922904004D3491C6E
:100E8000002801D14908490008467047C10FC90729
:100E900000D04042012292071143D3E70121890784
:100EA000D0E70000F8B5224C4E00069DA6420AD8B5
:100EB000A64201D1002806D15E00A64203D8A64270
:100EC0000AD1002A08D00D24240425422CD029461A
:100ED000002000F061F8F8BD0C461C430CD4994288
:100EE00002D0EFF30080F8BD904202D0EFF3008013
:100EF000F8BDEFF30080F8BD09242407E5008B421C
:100F000006D0EFF30080A043591A06D2284304E02C
:100F1000101A05D3EFF30080A04380F30088F8BDDA
:100F2000EFF30080A043F1E7009500F04DF8F8BD25
:100F30000000E0FF10B5FF231B0644009C421DD8B3
:100F40004C009C421AD80346124A0B4307D4401A5D
:100F500002D3EFF3008010BDEFF3008010BD081A3C
:100F600006D2EFF3008001219043C907084302E055
:100F7000EFF30080904380F3008810BD0D231B0425
:100F80001A4204D01146002000F006F810BD00F00F
:100F900025F810BD00000090C80212D54803400F8C
:100FA000002804D0C803C043012188407047EFF3F4
:100FB00000800001000903210907084380F300882D
:100FC000704700207047000010B500200249029AC7
:100FD00000F033F810BD00000000F87F10B50248A3
:100FE00000F02BF810BD00000000C07F754600F037
:100FF00053F8AE46050069465346C008C000854612
:1010000018B020B5FFF720F960BC00274908B646A4
:101010000026C0C5C0C5C0C5C0C5C0C5C0C5C0C507
:10102000C0C5403D49008D46704710B50446C046D6
:10103000C0462046FFF78FF810BD10B50C461107CB
:10104000090F092904D00A290AD008290CD104E083
:1010500011460820FFF7A0FF06E0510606D501E083
:10106000510601D50120C007214610BDD10607D584
:1010700001010909CC084907000E0006044309E0F4
:10108000410F20024907000A0143200E00061D22DD
:10109000D14101430846E7E700487047E40D0020CE
:1010A00001491820ABBEFEE7260002007047000091
:1010B000F0B585B007463846FFF7EAFD0546002241
:1010C000144BFFF7C1FC0022134B01910090FFF776
:1010D00073FA03910290FFF793FCC4B2FF2C14DA69
:1010E0003846FFF7D5FD054600220A4BFFF7ACFC5A
:1010F0000022094B01910090FFF75EFA0022074B96
:101100000391029004F016FA00D8FF24204605B09F
:10111000F0BD000000E06F400000594000D06F407B
:1011200010B5002240210920C00601F041FC012039
:1011300003F0A7FD012240210920C00601F038FC80
:1011400010BD000038B504462068FFF7B1FF6946BE
:1011500008706068FFF7ACFF014668464170007890
:101160000749088068464078FF2101310843044957
:10117000488064230222034802F030FA38BD0000A0
:101180005C000020B402002070B505466C6AA06BBC
:1011900050210840002835D1A06B012149020843A5
:1011A000A0632068C068032189020840002825D177
:1011B000A07E002822D12068006808210840082865
:1011C0001CD12068806804210840800800280DD1C7
:1011D000206840680C21884321684860A06BFF218B
:1011E0000131884301210843A06307E0A06B20215F
:1011F0000843A063E06B01210843E063204600F050
:10120000ABFB03E0206B016B2846884770BD70B5CF
:1012100005466C6AA06B40210843A063E06B042183
:101220000843E063204600F09DFB70BD70B50446A6
:10123000656A284600F095FB70BD000038B504468D
:10124000002500200090206880688007800F01281A
:101250000ED120680068C007C00F002806D12068A2
:10126000C0680121C9030840884201D1012000E083
:10127000002000284CD120688068264908400028BA
:1012800001D1012000E00020002809D1A06B10212D
:101290000843A063E06B01210843E063012038BDEF
:1012A0002068806801210843216888601A491B482A
:1012B0000068FFF78AF8009002E00098401E009056
:1012C00000980028F9D101F079FB054617E001F0FC
:1012D00075FB401B022812D920680068C007C00FA8
:1012E000012148404840002809D1A06B1021084343
:1012F000A063E06B01210843E0630120CFE7206891
:101300000068C007C00F0121484048400028DED0D7
:101310000020C4E71700008040420F001C0000209E
:10132000084800F01FF8074800F0C4F9142003F043
:10133000A8FC00BF034800F015F8012003F0A1FC51
:10134000F8E700000802002010B500F005F910BD14
:1013500070B504460D46164632462946204600F032
:101360003FFC70BD10B504460A2202492046FFF733
:10137000EFFF10BD28040020174800F0BBF800F074
:1013800089F8FFF7CDFE154815494860486800F018
:101390008BF81449486000F033F900BF10494868E1
:1013A00000F082F80F4948600846FFF7CBFE00F0D6
:1013B00071F80D4800680D49884203DCC720C0431E
:1013C0000949086008480068401E07490860022073
:1013D00003F057FCE2E700008C0200200000C0414F
:1013E000480000203800002058000020F0D8FFFFFF
:1013F00008B50178174A1170417851708178917061
:10140000C178D170017911714179517181799171EE
:10141000C179D1710178E1291AD1C179422901D06C
:1014200002F05AFF00210091427869460A708278E2
:101430004A70C2788A700279CA70074A009951606E
:101440004179517081791170C821044A116000BF3F
:1014500008BD000050000020480000205800002077
:1014600010B58AB0044600BF01AB03AA0021204694
:1014700000F0CCFC0028F7D105490398401800285B
:1014800003D101A8FFF7B4FF00BF00BF0AB010BD31
:1014900069FDFFFF10B501221102024801F088FA30
:1014A00010BD000000040048F8B5044600250A49B4
:1014B000204604F049F909490090204604F0B4F8A8
:1014C0000746074904F034F906460099FFF70AFC7D
:1014D00005462846F8BD00009A99993F0000B041A2
:1014E0009A991F4410B5024800F056FD10BD000047
:1014F0008C02002010B58AB004460020069001201E
:101500000790002000900190029003900490012029
:1015100008900E20099000BF69460A4800F0D6FBEB
:101520000028F9D100BF074800F0B0FF0028FAD129
:1015300000BF0221034800F0B3FB0028F9D10AB034
:1015400010BD00008C02002010B504460148FFF7D2
:1015500087FF10BD8C020020F8B5002420E0A10018
:101560001D4A5058FFF79AFC07461C49FFF7BAFB83
:1015700006461B480168304604F056F8A100194A97
:101580005050A1005058184904F04EF8064617482C
:101590000168304604F048F8A100154A5050641C18
:1015A0000A2CDCDB0025002407E0A000104A1158BB
:1015B000284603F0F3FF0546641C0A2CF5DB0D49B1
:1015C0002846FFF78FFB044621460B4803F01EFB1D
:1015D0000A490860F8BD00002804002000F07F459B
:1015E000240000205004002000003041280000208A
:1015F00078040020000020412C0000202000002062
:1016000070B50D494868FFF753FD0546FF2410E00B
:10161000FF20013020430949488064230222084802
:1016200001F0DCFF601EC4B2002000E0401C142862
:10163000FCDDAC42ECDA70BD380000205C0000201C
:10164000B402002010B5024800F0ADFF10BD00004C
:101650004802002010B5024800F0A5FF10BD0000B0
:101660009C03002010B50446054A2168881A1421FD
:10167000FEF7ABFE8000206401480838E06310BD2F
:101680000800024030B50124056CAC40C56B6C60AD
:10169000046863604468102C04D10468A260046884
:1016A000E16003E00468A1600468E26030BD72B6E6
:1016B00000BFFEE7F8B5044600250026002700BF5E
:1016C0003420005D012801D10220F8BD0121342021
:1016D000015500BF206880688007800F01280CD169
:1016E000206800680840002805D12068C068C90348
:1016F0000840884201D1012000E00020002849D1A3
:10170000A06BFF210131884302210843A0632068B8
:10171000C0688707BF0F2068C06880088000216804
:10172000C860206880680121C90708432168886073
:1017300001F044F9064619E001F040F9801B022847
:1017400014D920688068C00FC0070121C9078842EA
:101750000CD1A06B0221884310210843A06300BF75
:1017600000213420015500BF0120AEE720688068C9
:10177000C00FC0070121C9078842DDD02068C068BA
:1017800038432168C860A06B0221884301210843C7
:10179000A06304E0A06B20210843A063012500BFE3
:1017A00000213420015500BF28468EE7F8B50446D5
:1017B0000D4600260020009001210907E06A8842BA
:1017C00015D0E06A012812D0E06A02280FD0E06A42
:1017D00003280CD0E06A042809D0E06A052806D066
:1017E000E06A062803D0E06A072800D000BF00BFE7
:1017F0003420005D012801D10220F8BD01213420F0
:10180000015500BF20688068042108408008002836
:101810007ED14D496868884264D02068806A2A7801
:101820000121914008432168886201210907E06A8B
:10183000884229D0E06A012826D0E06A022823D015
:10184000E06A032820D0E06A04281DD0E06A052859
:101850001AD0E06A062817D0E06A072814D0A868D2
:10186000216849694907490F88420DD020684069BD
:10187000C008C0002168486120684069297A49078A
:10188000490F0843216848612868102805D0286856
:10189000112802D0286812284FD12C488068296866
:1018A000102901D1C90407E02968112902D10121B9
:1018B000890501E001210906084324498860286858
:1018C00010283AD1224923480068FEF77EFD0A21FC
:1018D0004843009002E00098401E009000980028C5
:1018E000F9D12AE02068816A2A780120904081435A
:1018F000206881622868102805D02868112802D045
:101900002868122819D1114880682968102900E038
:101910000EE001D1C90407E02968112902D1012193
:10192000890501E00121090688430849886004E02F
:10193000A06B20210843A063012600BF00213420B2
:10194000015500BF304658E7011000000027014054
:1019500040420F001C00002010B50446FFF7F4FCC5
:1019600010BD70477047000070B504460026002582
:10197000002C01D1012070BDA06B002806D1E063CE
:10198000002134200155204600F0D0F8A06B102132
:10199000084000287ED1002EFCD1206880680421F8
:1019A000084080080028F5D1A06B890188430221F6
:1019B0000843A063206880688007800F01280DD14C
:1019C00020680068C007C00F002805D12068C068E3
:1019D00089030840884201D1012000E0002000284E
:1019E0000FD12068C06818218843A1680843216886
:1019F000C860206800698000800861680843216829
:101A000008612068C068474908402168C860207E96
:101A10008003617EC9030843A17E49030843A16A8C
:101A2000012902D00121090300E000210843E168F7
:101A300008432169022901D1042100E00021084363
:101A40002421095D490008430543E07E01280ED1A9
:101A5000A07E002803D101200004054307E0A06B0D
:101A600020210843A063E06B01210843E063FF21CC
:101A7000C231E069884203D0216AE0690843054326
:101A80002068C06828432168C86001210907E06A0E
:101A9000884200E03EE014D0E06A012811D0E06AFC
:101AA00002280ED0E06A03280BD0E06A042808D090
:101AB000E06A052805D0E06A062802D0E06A072817
:101AC0000DD120684069C008C000216848612068C5
:101AD0004069A18D4907490F084321684861206882
:101AE000C06811490840A84208D10020E063A06BFB
:101AF0000221884301210843A06310E0A06B02216A
:101B0000884310210843A063E06B01210843E06390
:101B1000012604E0A06B10210843A0630126304693
:101B200029E700001902FEFFE7FF3F8310B586B0EA
:101B30000446142101A8FEF746FC25492068884286
:101B400044D100BF23488069491508432149886171
:101B50000846806949150840009000BF00BF00BFDB
:101B60001C484069090208431A494861084640690F
:101B7000012149040840009000BF00BF02200190ED
:101B8000032002900020039001A90920C00600F064
:101B900015FE1148114908600020486000210F48D7
:101BA00081608021C160890001618900416120213B
:101BB00081610902C16100F06FFD002801D0FFF7CB
:101BC00076FD00BF05482063446200BF06B010BD2B
:101BD000002401400010024008000240480200209A
:101BE000F8B504460D461646002720688068042193
:101BF00008408008002848D100BF3420005D01283B
:101C000001D10220F8BD01213420015500BF607EC2
:101C1000012803D02046FFF711FB0746002F35D1DE
:101C2000A06B1B490840FF2101310843A06300203D
:101C3000E06300BF00213420015500BF1548216B2F
:101C400088621548216BC8621448216B08631C2008
:101C500021680860206840681021084321684860B6
:101C60002068C068012108432168C86022681146C5
:101C7000403133462A46206B00F03CFD20688068E6
:101C8000042108432168886000E002273846B9E74C
:101C9000FEF1FFFF891100082D1200080F12000845
:101CA00010B502462020835C012B01D0022B06D107
:101CB00010684069084314686061002010BD506AD4
:101CC0000124A404204350620120F7E7F0B5044644
:101CD0000A4621682020055D012D01D0022D71D119
:101CE0000120400240580126304376027050107D9A
:101CF000C606F60E0123B340872080004058984363
:101D00008726B6007050D06900281DD1832080003E
:101D1000405898438326B6007050908900049688F6
:101D2000B6B230435669F6000927BF01CF19B85142
:101D3000108900041688B6B230435669F6000927A8
:101D4000BF01CF19F6197060D06901281DD1832019
:101D50008000405818438326B60070501088000455
:101D60009688B6B230435669F6000927BF01CF19ED
:101D7000B851108900049689B6B230435669F6000E
:101D80000927BF01CF19F61970609069002807D1A3
:101D900081208000405898438126B600705006E0AC
:101DA00081208000405818438126B6007050106989
:101DB000002808D185208000405898438526B60029
:101DC000705007E01AE085208000405818438526AF
:101DD000B6007050106A012806D187208000405854
:101DE00018438726B600705001204002405846082C
:101DF00076000120400246500020F0BD606A0126B6
:101E0000B604304360620120F7E7704770B50446BE
:101E10002020055D012D01D0022D7DD100290CD19E
:101E20002068C0688007800F002813D1606A0126EF
:101E3000760530436062012070BD2068006980072C
:101E4000800F002806D1606A012676053043606263
:101E50000120F1E72068FF30B1300E0180590426DF
:101E6000304090609068002807D12068FF30B13082
:101E70000E018059400D106006E02068FF30B1303F
:101E80000E018059C00850602068FF30B1300E014B
:101E9000805902263040D0602068FF30B1300E01FA
:101EA000801940680007000F10612068FF30B130D2
:101EB0000E0180194068FF2636023040000A90610A
:101EC0002068FF30B1300E0180194068000C50616D
:101ED0002068FF30B1300E018019806818702068CA
:101EE000FF30B1300E0180198068FF263602304085
:101EF000000A58702068FF30B1300E0180198068E8
:101F0000FF2636043040000C98702068FF30B13056
:101F10000E018019806800E037E0000ED87020685C
:101F2000FF30B1300E018019C06818712068FF3091
:101F3000B1300E018019C068FF2636023040000A19
:101F400058712068FF30B1300E018019C068FF263B
:101F500036043040000C98712068FF30B1300E011B
:101F60008019C068000ED871002906D12068C068A9
:101F7000202630432668F06005E0206800692026AE
:101F8000304326683061002056E7606A0126B604B7
:101F90003043606201204FE7F0B585B0044600256C
:101FA0002068466920684068039020688768206838
:101FB000C0680290206800690190206880690090E4
:101FC000F007C00F00286DD0F807C00F00281DD003
:101FD00001202168886002203840002803D0204674
:101FE00000F086FA12E004203840002803D00120D7
:101FF000C00205430AE008203840002803D0012031
:102000000003054302E0204600F071FAFF20013092
:102010003840002820D0FF2001302168886040002F
:102020003840002803D0204600F064FA14E0012074
:1020300080023840002803D00120400305430BE014
:102040000120C0023840002803D00120800305434E
:1020500002E0204600F04DFA01200004384000283C
:1020600020D001200004216888604000384000280A
:1020700003D0204600F040FA14E0012080043840EC
:10208000002803D00120C00305430BE00120C00459
:102090003840002803D001200004054302E0204618
:1020A00000F029FA08203040002809D010210298B9
:1020B0000840002804D04801054310202168C8606A
:1020C0000420304000280AD0082102980840002847
:1020D00005D008202168C860204600F0CDF9022014
:1020E0003040002808D02068C0688007800F002892
:1020F00002D0204600F0C1F940203040002809D02D
:10210000102101980840002804D0880105431020C0
:10211000216808612020304000280AD00821019859
:102120000840002805D0082021680861204600F0FA
:10213000AAF910203040002808D0206800698007E4
:10214000800F002802D0204600F09EF901204004B4
:10215000304000280AD0102103980840002805D0FC
:10216000102021684860204600F08FF9012000040B
:10217000304000280AD0082103980840002805D0E4
:10218000082021684860204600F0B7F90120C0030C
:102190003040002860D0042103980840002858D01F
:1021A00088013040002806D00098C007C00F0028E2
:1021B00001D001200543012040023040002806D014
:1021C000022100980840002801D002200543012088
:1021D00080023040002806D00421009808400028E2
:1021E00001D0042005430120C0023040002830D037
:1021F00070210098084000282BD000980840402803
:1022000015D006DC102809D020280AD0302818D193
:102210000AE050280ED0602813D10EE008200543B4
:1022200010E0102005430DE0202005430AE0402087
:10223000054307E08020054304E0FF20013005430B
:1022400000E000BF00BF20688069702188432168DA
:102250008861042021684860002D05D0606A284309
:1022600060622046FFF7D1FD05B0F0BD70B50446B1
:10227000002C01D1012070BD2020005D002802D17A
:10228000204600F0B1F82068006801210843216869
:10229000086000F093FB05460EE000F08FFB401B4A
:1022A0000A2809D9606A01214904084360620521AE
:1022B000202001550120DEE720684068C007C00FDC
:1022C0000028EAD02068006802218843216808605D
:1022D00000F074FB05460EE000F070FB401B0A287E
:1022E00009D9606A01214904084360620521202060
:1022F00001550120BFE720684068022108400028FE
:10230000EAD1207E012806D1206800688021084398
:102310002168086005E02068006880218843216802
:102320000860607E012806D12068006840210843CB
:102330002168086005E02068006840218843216822
:102340000860A07E012806D120680068202108438B
:102350002168086005E02068006820218843216822
:102360000860E07E012806D12068006810218843BB
:102370002168086005E02068006810210843216892
:102380000860207F012806D12068006808210843E2
:102390002168086005E020680068082188432168FA
:1023A0000860607F012806D1206800680421084386
:1023B0002168086005E020680068042188432168DE
:1023C0000860E168A068084321690843616908431F
:1023D0006168491E08432168C861002060620121CC
:1023E00020200155002046E710B586B00446142190
:1023F00001A8FDF7E8FF1E492068884236D100BFDA
:102400001C48C0690121490608431A49C8610846A9
:10241000C069012149060840009000BF00BF00BF0D
:102420001448406909120843124948610846406946
:10243000012149040840009000BF00BF0320C002F2
:1024400001900220029000200390032004900420B9
:10245000059001A90920C00600F0B0F9002203216F
:102460001E2000F053FB1E2000F042FB06B010BD02
:102470000064004000100240704710B5044620463A
:10248000FFF762F810BD70477047704770B504469B
:102490002020005D012823D1022120200155206841
:1024A0000068400840002168086000F087FA05468F
:1024B0000EE000F083FA401B0A2809D9606A012166
:1024C000490408436062052120200155012070BDA8
:1024D00020684068C007C00F0028EAD16062F6E7B4
:1024E000606A0121C904084360620120EFE7704778
:1024F000704770477047704770477047014621200A
:10250000405C022808D00420886300BF00222020FD
:10251000425400BF01207047086800680E229043B3
:102520000A68106008680068400840000A68106087
:1025300001200A6C9040CA6B506001222120425455
:1025400000BF00222020425400BF0020E3E770B506
:10255000044600252120005D022803D00420A0634A
:1025600001251EE0206800680E218843216808606C
:102570002068006840084000216808600120216C44
:102580008840E16B486001212120015500BF0021F6
:102590002020015500BF606B002802D02046616BEF
:1025A0008847284670BD70B50446E06B0568206812
:1025B00006680420216C8840284000281BD0042095
:1025C0003040002817D020680068202108400028EB
:1025D00005D1206800680421884321680860042030
:1025E000216C8840E16B4860E06A002852D02046A8
:1025F000E16A88474EE00220216C8840284000288C
:1026000023D00220304000281FD0206800682021FD
:102610000840002808D1206800680A218843216802
:1026200008600121212001550220216C8840E16BC6
:10263000486000BF00212020015500BFA06A00288B
:1026400028D02046A16A884724E00820216C8840D1
:10265000284000281ED00820304000281AD02068CA
:1026600000680E218843216808600120216C8840A1
:10267000E16B48600120A06301212120015500BFCA
:1026800000212020015500BF206B002802D02046E9
:10269000216B884770BD000070B504460025002CF2
:1026A00001D1012070BD022121200155206805685B
:1026B0000F480540A16860680843E1680843216944
:1026C000084361690843A1690843E1690843054378
:1026D000206805602046FEF7C5FF0020A0630121A9
:1026E000212001550021202001550020DAE70000BB
:1026F0000FC0FFFFF8B504460D4616461F460020E2
:10270000009000BF2020005D012801D10220F8BD0B
:1027100001212020015500BF2120005D01282DD17D
:102720000221212001550020A06320680068400894
:102730004000216808603B46324629462046FEF7A5
:10274000A1FFE06A002806D0206800680E21084337
:10275000216808600BE0206800680A2108432168AE
:1027600008602068006804218843216808602068A8
:102770000068012108432168086006E000BF0021CD
:102780002020015500BF022000900098BFE7000004
:1027900070B5044600F012F906462546681C00286C
:1027A00002D0054800782D1800BF00F007F9801B03
:1027B000A842FAD370BD00001800002078B5034687
:1027C0000A460021DAE001268E4014683440002CCD
:1027D0007ED01579AD07AD0F012D04D01579AD0769
:1027E000AD0F022D18D198684E000325B54006465E
:1027F000AE4330464E00D568B540284398605868CF
:1028000001258D400646AE433046102655683540BA
:102810002D098D40284358601579AD07AD0F032D64
:102820000BD0D8684E000325B5400646AE4330466F
:102830004E009568B5402843D8601579AD07AD0FB7
:10284000022D15D1CD08AE001D462035A8594D07E3
:10285000EE0E0F25B5400646AE4330464E07F60E47
:102860001569B5402843CD08AD001E46203670518D
:1028700018684E000325B5400646AE43304615792C
:10288000AD07AD0F4E00B54028431860032636044F
:1028900055683540002D70D000BF3B4DAD69012615
:1028A0003543394EB5613546AD69ED07ED0F0095FD
:1028B00000BF00BF354D8E08B600A8598D072E0FFA
:1028C0000F25B5400646AE4330460925ED0600E02B
:1028D00053E0AB4201D100250AE02D4DAB4201D1BE
:1028E000012505E02B4DAB4201D1022500E0052575
:1028F0008E07360FB5402843244D8E08B600A851E8
:10290000254D28680546A543284601263604556806
:102910003540002D02D00546254328461E4D28602F
:1029200068680546A5432846012676045568354063
:10293000002D02D0054625432846174D6860A8683B
:102940000546A54328460126360555683540002D25
:1029500002D00546254328460F4DA860E868054685
:10296000A54328460126760555683540002D02D03E
:10297000054625432846084DE860491C1568CD40AA
:10298000002D00D01FE778BD001002400800014074
:1029900000040048000800480004014010B54269E6
:1029A00013460B401B040C4694432343836110BD24
:1029B000002A01D0816100E081627047014800680F
:1029C00070470000100000200348006803490978A0
:1029D00040180149086070471000002018000020CE
:1029E00010B5064800681021084304490860032018
:1029F00000F006F800F04CF8002010BD0020024066
:102A000070B586B004460025002600222146162017
:102A100000F07CF8162000F06BF800BF17488069C2
:102A2000012189040843154988610846806901210C
:102A300089040840009000BF00BF01A902A800F06F
:102A400031F900F051F905460D492846FDF7BDFC66
:102A5000461E0C480C4908600C490B48C160466092
:102A600000210161816000F0A1FE002804D1064828
:102A700000F0D0FE06B070BD0120FBE70010024060
:102A800040420F0000480140E0030020E70300003F
:102A900008B500BF144880690121084312498861C4
:102AA00008468069C007C00F009000BF00BF00BF8C
:102AB0000846C069090408430B49C8610846C06953
:102AC00009040840009000BF00BF00220321481FF6
:102AD00000F01CF800BF05480068102108430349B6
:102AE000086000BF08BD0000001002400000014067
:102AF0000146002905DBCB06DB0E01229A40024B82
:102B00001A6000BF7047000000E100E070B50446A5
:102B10000D4616462946204602F036F870BD0000E4
:102B200070B504460D46002C01D1012070BD5848F7
:102B30000068C007C00FA8420ED255480068400880
:102B4000400028435249086008460068C007C00F8B
:102B5000A84201D00120E9E70221206808400228AC
:102B600014D1042120680840042807D1494840684E
:102B70000721090288434018464948604548406893
:102B8000F0218843A1680843424948602078C00783
:102B9000C00F002847D06068012808D13D48006870
:102BA000012149040840002821D10120BEE76068C6
:102BB000022808D13748006801214906084000284A
:102BC00015D10120B2E76068032808D13148406B75
:102BD000012109040840002809D10120A6E72D4859
:102BE000006802210840002801D101209EE7294801
:102BF0004068800880006168084326494860FFF704
:102C0000DDFE064607E0FFF7D9FE801B2249884219
:102C100001D903208AE71F4840680C2108406168F9
:102C200089008842EFD11A480068C007C00FA84247
:102C30000ED917480068400840002843144908602E
:102C400008460068C007C00FA84201D001206DE708
:102C5000042120680840042808D10E484068072154
:102C600009028843E16808430A49486000F04EF8C9
:102C700008494968F02211400909084A515CC840D6
:102C8000074908600320FFF7BBFE00204EE7000065
:102C900000200240001002408813000088580008FD
:102CA0001C000020072202600A4A52689207920F15
:102CB0004260084A5268F0231A408260054A52680E
:102CC00007231B021A40C260034A1268D207D20FC0
:102CD0000A6070470010024000200240014800686E
:102CE000704700001C00002000B5FFF7F7FF054902
:102CF0004968072212021140090A034A515CC84080
:102D000000BD00000010024098580008F0B589B0DE
:102D100035A001460EC9C06805AC0EC4089036A0A7
:102D200001460EC9C06801AC0EC404900025002401
:102D30000027002600200090334845680C202840DA
:102D4000002849D0042804D0082805D00C2842D1F6
:102D50003EE02E48009042E00F2080042840800C86
:102D600005A90E5C2848C06A0007000F01A90C5C89
:102D70000320C00328400121090488420AD12246C9
:102D8000002322481946FDF77FFA314601F0E4FEA0
:102D900007461BE00320C00328400321C9038842E3
:102DA0000AD1224600231A481946FDF76DFA31462A
:102DB00001F0D2FE074609E02246002315481946D5
:102DC000FDF762FA314601F0C7FE0746009706E0BC
:102DD0000F48009003E000BF0E48009000BF00BF06
:102DE000009809B0F0BD00000203040506070809B9
:102DF0000A0B0C0D0E0F1010010203040506070844
:102E0000090A0B0C0D0E0F1000100240001BB7003A
:102E1000006CDC0200127A00FEB50446002C01D1E1
:102E20000120FEBD2078C007C00F002872D0FC48EA
:102E300040680C21084004280CD0F948406808403C
:102E4000082813D1F64840684903084001210904C5
:102E500088420BD1F248006801214904084000284B
:102E60006BD06068002868D10120DAE700BF606895
:102E7000012807D1EA480068012109040843E8490C
:102E8000086031E0606800280ED1E5480068012143
:102E900009048843E2490860084600680121890462
:102EA0008843DF4908601FE0606805280ED1DC48D0
:102EB0000068012189040843D94908600846006870
:102EC000012109040843D64908600DE0D448006890
:102ED000012109048843D24908600846006801219D
:102EE00089048843CE49086000BF6068002812D07A
:102EF000FFF764FD054606E0FFF760FD401B642810
:102F000001D903208DE7C648006801214904084023
:102F10000028F1D011E0FFF751FD054606E0FFF76C
:102F20004DFD401B642801D903207AE7BC480068A6
:102F30000121490408400028F1D1022120680840FD
:102F4000022862D1B64840680C21084000280CD005
:102F5000B3484068084008281CD1B148406849037C
:102F600008400121C903884214D1AD4800680221FC
:102F70000840002804D0E068012801D0012050E773
:102F8000A7480068F82188432169C9000843A4497B
:102F900008603AE0E068002820D0A14800680121DC
:102FA00008439F490860FFF709FD054606E0FFF763
:102FB00005FD401B022801D9032032E7984800682C
:102FC000022108400028F2D095480068F821884383
:102FD0002169C90008439249086016E090480068DA
:102FE000400840008E490860FFF7E8FC054606E00F
:102FF000FFF7E4FC401B022801D9032011E78848B1
:103000000068022108400028F2D108212068084009
:10301000082831D1E069002817D08148406A012191
:1030200008437F494862FFF7C9FC054606E0FFF701
:10303000C5FC401B022801D90320F2E67848406A0B
:10304000022108400028F2D016E07548406A400886
:10305000400073494862FFF7B1FC054606E0FFF700
:10306000ADFC401B022801D90320DAE66C48406A17
:10307000022108400028F2D10421206808400428D9
:1030800072D1002001906648C06989060840002876
:103090000ED100BF6248C06908436149C861084653
:1030A000C06909040840009000BF00BF01200190E2
:1030B0005C480068FF2101310840002816D15948BA
:1030C0000068084357490860FFF778FC054606E0AA
:1030D000FFF774FC401B642801D90320A1E6514886
:1030E0000068FF21013108400028F1D000BFA0682E
:1030F000012806D14A48006A01210843484908626C
:103100002AE0A06800280BD14548006A4108490020
:1031100043480162006A04218843414908621BE078
:10312000A06805280CD13E48006A042108433C49A8
:1031300008620846006A01210843394908620BE029
:103140003748006A40084000354908620846006A6E
:10315000042188433249086200BFA068002813D0C8
:10316000FFF72CFC054608E02BE0FFF727FC401B8F
:103170002D49884201D9032053E62948006A0221DB
:1031800008400028F1D011E0FFF718FC054607E0E1
:10319000FFF714FC411B2448814201D9032040E67B
:1031A0001F48006A022108400028F1D10198012837
:1031B00006D11B48C0690121090788431849C86125
:1031C00000BF10212068084010285FD160690128E5
:1031D0002CD11348406B0421084311494863084629
:1031E000406B012108430E494863FFF7E7FB0546A2
:1031F00006E0FFF7E3FB401B022801D9032010E69D
:103200000748406B022108400028F2D00448406B78
:10321000F8218843A169C90008430149486335E0A2
:103220000010024000700040881300006069401DDB
:1032300000280FD18648406B0421884384494863A5
:103240000846406BF8218843A169C90008438049BA
:1032500048631BE07E48406B042108437C49486377
:103260000846406B400840004863FFF7A7FB05464F
:1032700006E0FFF7A3FB401B022801D90320D0E59D
:103280007348406B022108400028F2D120212068B9
:103290000840202852D16E4840680C2108400C2874
:1032A0000AD06B4840680840082811D16848406837
:1032B0004903084088420BD16548406B012109044D
:1032C000084000283AD0206A012837D00120A8E51C
:1032D000206A002819D05E48406B01210904084388
:1032E0005B494863FFF76AFB054606E0FFF766FBAC
:1032F000401B022801D9032093E55548406B01216A
:10330000090408400028F1D018E05148406B012121
:10331000090488434E494863FFF750FB054606E021
:10332000FFF74CFB401B022801D9032079E54848F0
:10333000406B0121090408400028F1D1606A00288F
:103340004FD0434840680C210840082864D0606A88
:10335000022847D13E4800680121090688433C49BC
:103360000860FFF72BFB054606E0FFF727FB401B35
:10337000022801D9032054E5354800680121490697
:1033800008400028F1D100BF3148C06A000900019F
:10339000216B08432E49C862A16AE06A08432C49A0
:1033A00049687B22D203914308432949486000BF02
:1033B0000846006801210906084325490860FFF70F
:1033C000FDFA054606E0FFF7F9FA401B022801D98D
:1033D000032026E51E480068012149060840002810
:1033E000F1D033E01A4800680121090688431849E2
:1033F0000860FFF7E3FA054606E0FFF7DFFA401B37
:10340000022801D903200CE5114800680121490672
:1034100008400028F1D119E0606A012800D100E5D8
:103420000B484668C76A0320C0033040A16A88423F
:103430000AD13907090F206B814205D10F20800482
:103440003040E16A884201D00120EAE40020E8E44B
:103450000010024070B50446002C01D1012070BD5F
:10346000606A002808D1FF2105316068884200D1D8
:1034700005E00021E16102E000212161616100219C
:10348000A1625D20005D002804D15C20015520462A
:1034900000F066F802215D20015520680068402197
:1034A00088432168086007210902E068884201D941
:1034B000002501E001252D030F210902E068884263
:1034C00006D007210902E068884201D00021A162EC
:1034D000FF2105316068084021229202A168114055
:1034E00008430222216911400843217DC907C90F01
:1034F00008431202A169114008433822E1691140D2
:1035000008438022216A114008439201A16A1140B8
:10351000084321680860A069000C042108401022BB
:10352000616A114008430822616B114008430F2271
:103530001202E168114008430121090329400843B0
:10354000216848602068C0690121C9028843216858
:10355000C8610020206601215D20015500207EE722
:1035600010B586B00446142101A8FCF72CFF1949B8
:10357000206888422BD100BF17488069891408430E
:10358000154988610846806989140840009000BF89
:1035900000BF00BF10484069490108430E49486117
:1035A00008464069012149040840009000BF00BF5F
:1035B000B02001900220029000200390032004908C
:1035C0000020059001A90920C006FFF7F7F806B012
:1035D00010BD00000030014000100240FFB583B074
:1035E000044616461D460020029000BF5C20005D88
:1035F000012802D1022007B0F0BD01215C20015555
:1036000000BFFFF7DBF9074601965D20005D01284A
:1036100002D002200290BDE00498002801D0002EC4
:1036200002D101200290B5E003215D200155002068
:1036300020660498A063A687E68700202064002106
:10364000442001534620015300202065E0640121FD
:10365000C903A06888420CD12068006840218843D3
:1036600021680860206800680121890308432168F7
:1036700008602068006840210840402804D0206885
:10368000006808432168086007210902E068884251
:1036900032D96068002802D00198012809D1A06BB6
:1036A00000882168C860A06B801CA063E08F401E6A
:1036B000E0871DE0206880680221084002280AD1C6
:1036C000A06B00882168C860A06B801CA063E08F9D
:1036D000401EE0870CE0FFF771F9C01BA84202D33F
:1036E000681C002801D1002D02D10320029051E076
:1036F000E08F0028DED131E06068002802D0019818
:10370000012809D1A06B007821680873A06B401CC8
:10371000A063E08F401EE0871DE0206880680221E2
:10372000084002280AD1A06B007821680873A06BBA
:10373000401CA063E08F401EE0870CE0FFF73EF9DD
:10374000C01BA84202D3681C002801D1002D02D161
:10375000032002901EE0E08F0028DED13A46294681
:10376000204600F0BBFD002801D020202066A06884
:10377000002809D100BF00902068C0680090206830
:103780008068009000BF00BF206E002801D001209B
:10379000029000BF01215D20015500BF00215C2087
:1037A000015500BF029826E77047704710B50446E0
:1037B000002C01D1012010BD3D20005D002805D165
:1037C00000213C200155204600F022F802213D2036
:1037D0000155211D206800F0F3FE0121462001550E
:1037E00000BF3E2001553F2001554020015541209A
:1037F000015500BF00BF4220015543200155442020
:1038000001554520015500BF3D2001550020D2E75C
:103810007047000001463D20405C012801D0012096
:10382000704702233D2043540868C06801231843B1
:103830000B68D860104B0868984208D001239B079A
:103840000868984203D00D4B086898420CD108686C
:1038500080684207520F062A0CD0086800680123CE
:1038600018430B68186005E00868006801231843D6
:103870000B6818600020D3E7002C014000040040D2
:10388000704710B5044620680069022108404008CE
:1038900000281CD02068C06808404008002816D0C6
:1038A000481F21680861012020772068806980070F
:1038B000800F002803D02046FFF7E2FF05E02046F6
:1038C00000F0C3F8204600F0C1F8002020772068FF
:1038D000006904210840800800281DD02068C068C5
:1038E00008408008002817D0C843216808610220DA
:1038F000207720688069032109020840002803D04E
:103900002046FFF7BDFF05E0204600F09EF8204668
:1039100000F09CF80020207720680069082108400A
:10392000C00800281CD02068C0680840C0080028D3
:1039300016D0C84321680861042020772068C06938
:103940008007800F002803D02046FFF799FF05E08D
:10395000204600F07AF8204600F078F80020207722
:103960002068006910210840000900281DD0206847
:10397000C06808400009002817D0C84321680861C2
:10398000082020772068C069032109020840002828
:1039900003D02046FFF774FF05E0204600F055F8FD
:1039A000204600F053F80020207720680069C00707
:1039B000C00F01214840484000280CD02068C06852
:1039C000084048404840002805D0C81E21680861CA
:1039D000204600F03DF82068006980210840C009B9
:1039E00000280BD02068C0680840C009002805D016
:1039F000C843216808612046FFF7D6FE20680069A9
:103A000040210840800900280BD02068C068084089
:103A10008009002805D0C84321680861204600F0CD
:103A200023F82068006920210840400900280BD0B5
:103A30002068C06808404009002805D0C8432168B4
:103A400008612046FFF7B1FE10BD704770470000C7
:103A500010B5044603492068884201D1FEF7B4FF3F
:103A600010BD000000480140704770477047704724
:103A7000F0B585B004462068C569206806682068EE
:103A80008768E94828400390039800280FD1202038
:103A9000284000280BD020203040002807D0606E3E
:103AA000002802D02046616E884705B0F0BD03981B
:103AB00000287DD0F807C00F002803D1DB48304034
:103AC0000028F6D0E807C00F00280DD0FF200130F5
:103AD0003040002808D00120216808628020005969
:103AE00001210843802108510220284000280CD0E1
:103AF000F807C00F002808D0022021680862802043
:103B0000005904210843802108510420284000283E
:103B10000CD0F807C00F002808D0042021680862E4
:103B200080200059022108438021085108202840A4
:103B3000002810D020203040002803D1F807C00F03
:103B4000002808D008202168086280200059082138
:103B50000843802108510120C002284000280ED0CF
:103B6000012080063040002809D00120C0022168D1
:103B700008628020005920210843802108518020BC
:103B80000059002854D020202840002809D02020A7
:103B90003040002805D0606E002802D02046616EBB
:103BA000884780200059029020688068402100E00A
:103BB0003FE00840402804D028210298084000280F
:103BC00030D0204600F00AFE20688068402108407E
:103BD000402823D100BF01F013F80190012001F02B
:103BE00012F8206880684021884321688860019825
:103BF00001F009F800BF206F00280BD08C48216F1E
:103C00004863206FFEF7A3FC002811D0206F416BA2
:103C100088470DE02046FFF72AFF09E02046FFF71E
:103C200026FF05E02046FFF722FF002180200151FA
:103C30003BE7206E01287AD110202840002876D05A
:103C4000102030400028FAD0102021680862206837
:103C500080684021084040286BD1206F0068406890
:103C600080B201900198002860D05820015B019833
:103C700081425BDD5A2101980853206F806920281A
:103C80004BD000BF00F0BCFF0090012000F0BBFF54
:103C900020680068FF21013188432168086000988E
:103CA00000F0B1FF00BF00BF00F0AAFF00900120AC
:103CB00000F0A9FF20688068400840002168886003
:103CC000009800F0A0FF00BF00BF00F099FF009037
:103CD000012000F098FF2068806840218843216817
:103CE0008860009800F08FFF00BF2020E067002070
:103CF000206600BF00F084FF0090012000F083FFE9
:103D0000206800681021884321680860009800F04E
:103D10007AFF00BF206FFEF7F1FB5820025B5A20AC
:103D2000005B101A81B22046FFF79FFEBDE64CE013
:103D3000FFE75820015B5A20005B081A80B201900F
:103D40005A20005B00283FD0019800283CD000BFDB
:103D500000F056FF0090012000F055FF2068006839
:103D6000FF212131884321680860009800F04BFF53
:103D700000BF00BF00F044FF0090012000F043FFAF
:103D8000206880684008400021688860009800F042
:103D90003AFF00BF2020E06700202066606600BF79
:103DA00000F02EFF0090012000F02DFF2068006839
:103DB0001021884321680860009800F024FF00BFAC
:103DC00020460199FFF751FE6FE6012000052840CB
:103DD00000280CD0012080053840002807D00120A1
:103DE0000005216808622046FFF740FE5DE680205E
:103DF000284000280AD080203040002806D0A06E3D
:103E0000002802D02046A16E88474EE64020284078
:103E1000002807D040203040002803D0204600F082
:103E20001CFD42E600BF40E60F0800002001000430
:103E3000C547000810B50446002C01D1012010BD73
:103E4000A069002800D000E000BFA06F002805D1C5
:103E5000002174200155204600F02CF82420A06792
:103E6000206800684008400021680860204600F093
:103E70000FFD012800D1E2E7606A002802D0204649
:103E800000F0EEFB206840680921C90288432168E0
:103E90004860206880682A218843216888602068FB
:103EA00000680121084321680860204600F050FCAA
:103EB000C5E7000010B586B00446142101A8FCF740
:103EC00082FA2B492068884250D100BF2948C06936
:103ED0000121490408432749C8610846C0690121F6
:103EE00049040840009000BF00BF00BF214840695E
:103EF00008432049486108464069012149040840B7
:103F0000009000BF00BF0C20019002200290002012
:103F10000390032004900120059001A90920C00608
:103F2000FEF74CFC14481549086000204860002149
:103F3000124881608021C16000210161416120211E
:103F40008161C901C161FEF7A7FB002801D0FDF71F
:103F5000AEFB00BF09482067446200BF0022032176
:103F60001C20FEF7D3FD1C20FEF7C2FD06B010BDDD
:103F70000044004000100240580002409C03002012
:103F8000704700BFFEE70000002202211348FEF741
:103F90000FFD00BF12480068002807DC02210F480F
:103FA000FEF7FCFC322000F06CFEF3E70D49486898
:103FB0000D4901F091FB08D202210848FEF7EEFC02
:103FC0007D20C00000F05DFEE4E702210348FEF71B
:103FD000E5FCFF20F53000F054FEDBE7000400486C
:103FE00058000020480000200000E0410EB50020ED
:103FF00000900190029019481949086040054860F6
:10400000002117488160C1600121016108214161DF
:1040100000210176417681760121C176FF21C231EE
:10402000C1610021016224300170012124388162C4
:10403000FDF79AFC002801D0FDF739FB0120009024
:10404000000301900220029069460548FDF7AEFB8F
:10405000002801D0FDF72BFB0EBD0000002401401D
:104060000802002010B50E480E490860082048607C
:1040700000210C488160C160012149040161C9002F
:1040800041610021017641768176C1760177012177
:104090004177FEF7EBF8002801D0FDF708FB10BDD3
:1040A000006400408C02002008B500BF0E48406943
:1040B000012108430C49486108464069C007C00F08
:1040C000009000BF00BF002203210920FEF71EFD63
:1040D0000920FEF70DFD002203210B20FEF716FD3F
:1040E0000B20FEF705FD08BD0010024000B59DB095
:1040F0001C22184916A8FCF771F8002116A800F038
:10410000CDFD154908601C2212491C310FA8FCF78F
:1041100065F800210FA800F0C1FD104908601C22BD
:104120000C49383108A8FCF759F8002108A800F01C
:10413000B5FD0B4908601C220649543101A8FCF763
:104140004DF8002101A800F0A9FD064908601DB046
:1041500000BD0000185800080000002004000020E6
:10416000080000200C00002000B587B0142102A830
:10417000FCF729F900BF2F48406901218904084351
:104180002C49486108464069012189040840019092
:1041900000BF00BF00BF2748406909010843254907
:1041A000486108464069012189050840019000BF27
:1041B00000BF00BF1F484069491108431D494861BD
:1041C00008464069012149040840019000BF00BF32
:1041D0000022FF2103311848FEF7EAFB00224021AC
:1041E0000920C006FEF7E4FBFF2001300290012009
:1041F0000390022004900020059002A90E48FEF7CB
:10420000DDFA4020029001200390049000200590E8
:1042100002A90920C006FEF7D1FA0220029001206F
:10422000039000200490059002A90348FEF7C6FA07
:1042300007B000BD001002400004004810B512484D
:1042400012490860FF200530486000210F48816056
:1042500009210902C1600021016141610121890434
:1042600081611821C16100210162416281620721DF
:10427000C1620021016308214163FFF7EBF80028C8
:1042800001D0FDF714FA10BD00300140B402002047
:1042900010B50E480E490860E12040024860002138
:1042A0000B488160C16001610C2141610021816185
:1042B000C16101620020064948620846FFF7BAFD65
:1042C000002801D0FDF7F3F910BD000000440040C4
:1042D0001803002000BFFEE700BFFEE7F8B5044664
:1042E0000E461546334600220321C902204600959A
:1042F00000F02AF8002805D0206E2021084320660F
:104300000320F8BD3346002280212046009500F0AE
:1043100099F8002805D0206E20210843206603204C
:10432000EFE733460022032149022046009500F0C2
:104330000BF8002805D0206E2021084320660320BA
:10434000DFE70020DDE70000F0B585B004460D464C
:1043500016461F4600200090FEF730FB0A99401ACF
:10436000381A0390FEF72AFB029020680C30019067
:104370003348006823214843000D039948430490C3
:1043800056E003204002854206D1002E04D1019858
:104390000178009168460078781C002848D0FEF724
:1043A0000DFB0299411A0398814202D2039800281A
:1043B00037D120684068E021884321684860FF21A8
:1043C0000531606888420ED10121C903A068884286
:1043D00003D04911A068884205D1206800684021B7
:1043E00088432168086001214903A06A88420DD1F1
:1043F00000BF206800688843216808602068006862
:104400000121490308432168086000BF01215D20A4
:10441000015500BF00215C20015500BF032005B0FD
:10442000F0BD0498002800D103900498401E049029
:10443000206880682840B042A3D10020EFE7000048
:104440001C000020FFB583B004460D461E46FEF753
:10445000B5FA0C99401A371AFEF7B0FA01902F48B6
:1044600000684001000D7843029049E0701C00286C
:1044700046D0FEF7A3FA0199401AB84201D2002FA4
:1044800037D120684068E021884321684860FF21D7
:104490000531606888420ED10121C903A0688842B5
:1044A00003D04911A068884205D1206800684021E6
:1044B00088432168086001214903A06A88420DD120
:1044C00000BF206800688843216808602068006891
:1044D0000121490308432168086000BF01215D20D4
:1044E000015500BF00215C20015500BF032007B02B
:1044F000F0BD0298002800D100270298401E0290CB
:10450000206880682840A84201D1012100E00021F4
:1045100005988142AAD10020E9E700001C00002094
:10452000704700BF012000F0ACFBFBE710B5FBF7C4
:104530002DFE044600F044FF002803D0012003496B
:10454000000748602046FBF725FE10BD00ED00E0A7
:1045500000B591B0342104A8FBF735FF002000908E
:1045600001900290039001200490059002200D908C
:10457000C1030E9181040F910021109104A8FEF750
:104580004BFC002801D0FDF792F807200090022094
:10459000019000200290039001216846FEF7C0FAC6
:1045A000002801D0FDF783F811B000BD704700006E
:1045B00010B50248FFF765F910BD0000E0030020C8
:1045C00010B50268214B984206D001239B07984200
:1045D00002D01F4B984205D170241346A3431A46BC
:1045E0004B681A43194B98420FD001239B079842FE
:1045F0000BD0174B984208D0164B984205D0164B5B
:10460000984202D0154B984206D103242402134647
:10461000A3431A46CB681A4380241346A3434C692C
:1046200023431A4602608B68C3620B688362074BA0
:10463000984205D0084B984202D0084B984201D1CD
:104640000B6903630123436110BD0000002C01408E
:1046500000040040002000400044014000480140A8
:10466000818CC907C90F002908D001684968012257
:1046700052049143826A1143026851600222416AE6
:104680001140022907D101684968D2039143C26AE7
:104690001143026851600422416A1140042907D184
:1046A0000168496812049143026B1143026851602A
:1046B0000822416A1140082907D10168496812039C
:1046C0009143426B1143026851601022416A1140CC
:1046D000102907D10168896812029143826B114346
:1046E000026891602022416A1140202907D10168A7
:1046F000896812029143C26B1143026891604022A3
:10470000416A1140402915D10168496892039143DB
:10471000026C11430268516001221205016C914242
:1047200008D101684968032252059143426C114344
:10473000026851608022416A1140802907D10168D6
:10474000496812039143826C1143026851607047BB
:1047500038B50446002180200151FEF72FF90546A7
:10476000206800680821084008280BD114482B460F
:10477000002289040090204600F058F9002801D05A
:10478000032038BD206800680421084004280BD1AC
:104790000B482B46002209050090204600F046F900
:1047A000002801D00320ECE72020A067E06700206C
:1047B000206600BF00217420015500BF0020E0E703
:1047C000FFFFFF0170B505466C6A00215A200153B6
:1047D000522001532046FFF74AF970BD70B50446D8
:1047E00000BF00F00DFA0546012000F00CFA206829
:1047F0000068FF212131884321680860284600F0C5
:1048000002FA00BF00BF00F0FBF90546012000F0EE
:10481000FAF92068806840084000216888602846CE
:1048200000F0F1F900BF206E012810D100BF00F0A8
:10483000E7F90546012000F0E6F92068006810213C
:10484000884321680860284600F0DDF900BF202079
:10485000E06700202066606670BD70B5044600BF4A
:1048600000F0CEF90546012000F0CDF9206800687F
:104870004021884321680860284600F0C4F900BF41
:104880002020A0670020A0662046FFF779FB70BDBE
:10489000FEB50446002000902169A06808436169C4
:1048A0000843E169084302902068006859490840BC
:1048B00002990843216808602068406803210903C1
:1048C0008843E168084321684860A0690290206A33
:1048D000029908430290206880680B2109028843EE
:1048E000029908432168886000BF4B4920688842CC
:1048F00017D14A48006B8007800F002806D0012896
:1049000008D0022808D0032808D101E0002607E0DB
:10491000022605E0042603E0082601E0102600BF79
:1049200006E03F492068884201D1002600E01026B9
:1049300000BF0121C903E069884239D1002E06D0A9
:10494000022E08D0042E08D0082E0DD109E0FEF763
:10495000CBF905460CE0334D0AE0FEF7D7F90546E2
:1049600006E00125ED0303E000250120009000BFD3
:1049700000BF002D49D06A0063685B08D0186168E9
:10498000FBF723FD87B2102F0FD3274887420CD89F
:1049900025480F38384001903807400F01990843E7
:1049A000019001982168C8602FE0012000902CE060
:1049B000002E06D0022E08D0042E08D0082E0DD1CD
:1049C00009E0FEF791F905460CE0164D0AE0FEF706
:1049D0009DF9054606E00125ED0303E000250120D1
:1049E000009000BF00BF002D0FD061684A08501929
:1049F000FBF7EBFC87B2102F05D30B48874202D898
:104A00002068C76001E00120009000206066A06679
:104A10000098FEBDF369FFEF00380140001002402E
:104A20000044004000127A00FFFF0000FFB581B093
:104A300004460D4617460A9E78E0701C002875D083
:104A4000FDF7BCFF0499401AB04201D8002E2DD1C9
:104A500000BF00F0D5F80090012000F0D4F82068E5
:104A60000068FF21A131884321680860009800F0A8
:104A7000CAF800BF00BF00F0C3F80090012000F0AA
:104A8000C2F820688068400840002168886000986B
:104A900000F0B9F800BF2020A067E06700BF002148
:104AA0007420015500BF032005B0F0BD20680068E8
:104AB00004210840002839D02068C0694902084014
:104AC000C00A002832D008462168086200BF00F002
:104AD00097F80090012000F096F820680068FF2108
:104AE000A131884321680860009800F08CF800BF6D
:104AF00000BF00F085F80090012000F084F82068E5
:104B000080684008400021688860009800F07BF8C9
:104B100000BF2020A067E06720218020015100BF56
:104B200000217420015500BF0320BDE72068C06943
:104B30002840A84201D1012000E00020B84200D165
:104B40007BE70020B0E7000010B50248FEF790FFB9
:104B500010BD000018030020F8B582B28BB2040C1F
:104B60000D0C10465843002126465E43370C360490
:104B70008019794116466E43370C36048019794105
:104B800026466E438919F8BD10B5002819DB1A4A6C
:104B900003231B02D21883089B00D2588307DC0E24
:104BA000FF23A3409A438B071B0E8407E40EA34008
:104BB0001A43114B032424021B198408A4001A5120
:104BC00018E00E4A03071B0F083B9B089B00D258B6
:104BD0008307DC0EFF23A3409A438B071B0E840739
:104BE000E40EA3401A43054B0407240F083CA40815
:104BF000A4001A5110BD000000E100E01CED00E02F
:104C0000EFF31080704780F310887047FEB50446BC
:104C10000D46A5607F20C005216800F095FD00903D
:104C2000616800F001FD0746A168206800F0FCFC07
:104C30003946019000F0B2FC064666603046FEBD83
:104C4000FDF7CEFEFFF784FCFFF72EFAFFF78CFA94
:104C5000FFF7F4FAFFF706FAFFF7C8F9FFF724FAAF
:104C6000FFF716FBFFF742FA00F013F802E001200D
:104C7000FDF78EFDFBE70021842800D0C11C08460B
:104C8000704710B5002800D1012000F0A3FA0020E1
:104C900010BD10B500F0B8FA002010BD30B585B0D9
:104CA00004460D4608206169205E002911D0A169E3
:104CB00000290ED0FFF7DFFF6269A169019202911E
:104CC00000902B4622692168606800F056FB049032
:104CD00010E0FFF7D0FF04A901910090208A2B4635
:104CE00082B22168606800F019FB012802D0002020
:104CF00005B030BD049805B030BD0000F8B50446DD
:104D00000F46124E35693068001D00F0C7F9601C6F
:104D100007D1002F05D031680D48091D00F005FAB4
:104D2000F8BD2C1930684460AC4205D23168B068D7
:104D3000091D00F0E1F9F8BD31687068091D00F047
:104D4000DBF9F06A8442F6D2F462F8BD600000201C
:104D50006805002070B5044600F0F4F9194DE868C4
:104D6000401CE8602868002803D0A869002807D004
:104D70000CE02C60E868012808D100F09FF805E0FD
:104D80002868E16AC06A884200D82C60A86A401C82
:104D9000A862E06A6969884200D9686114214843C1
:104DA00009494018211D00F0C0F900F0D7F9A869A1
:104DB000002806D02868E16AC06A884201D200F063
:104DC000FDF970BD60000020A004002070470000C5
:104DD0000F491048420705D0C01DC008C0000D4A49
:104DE000821A891A0C4B186000225A60411808393F
:104DF000C908C900094B19604A600A600A1A426072
:104E000001604068986058600120C007D860704712
:104E1000660800007C050020A80000209800002003
:104E2000044CFFF7D3FF20680128FAD900F0C6F937
:104E3000F7E70000A0040020FFB581B00B9E0A9D9B
:104E40000C9C521E206B92008018C008C00000907D
:104E50000098400701D072B6FEE7002023180A5CD4
:104E600020331A750A5C002A02D0401C1028F5D3A2
:104E70000021204640300746C170072D00D306258B
:104E8000E56265640020A064201D00F032F9204630
:104E9000183000F02EF924610720401BA0616462E5
:104EA0000020E0643874049A0199009800F0E6F854
:104EB0002060002E00D0346005B0F0BD70B5002435
:104EC0000D4D14206043401900F008F9641C072CB4
:104ED000F7D30A4800F002F9094800F0FFF8094842
:104EE00000F0FCF8084800F0F9F808480349416070
:104EF0001431816070BD0000A00400202C0500204A
:104F000040050020540500206805002060000020B6
:104F100030B4134900E011460A688242FBD34B6863
:104F20005C18844203D140681818486008464368FA
:104F30000D681C18AC420CD10A4C2468A24206D061
:104F400052689A1842600A681268026002E00460BF
:104F500000E00260814200D0086030BC7047000071
:104F6000A800002098000020074948680068002831
:104F700005D04868C068C0684068C86270470020B3
:104F8000C043C862704700006000002010B5074CA5
:104F900000202061A06106487D21C9000068FBF760
:104FA00014FA401E60610720206110BD00E000E09F
:104FB0001C00002003480068401C01D072B6FEE7C8
:104FC00072B6FEE7B0000020F8B50546002600F0F6
:104FD00051F9284F3868002801D1FFF7F9FEF86829
:104FE00005423FD1002D0BD00835680708D068076F
:104FF000400F0821081A4519680701D072B6FEE76C
:10500000002D2FD0786885422CD81B4908460468AB
:1050100001E0214604466068A84202D220680028C8
:10502000F7D1386884421DD00E68083620680860C1
:105030006068411B102908D96019420701D072B677
:10504000FEE741606560FFF763FF61687868401ABA
:105050007860BA68904200D2B860F8680143616035
:105060000020206000F00CFA700701D072B6FEE755
:105070003046F8BD98000020A8000020001F012342
:105080001B060360001F0160001F03490160143804
:105090000260203870470000B54F0008016943687E
:1050A00082689A60836842685A604A68824201D185
:1050B00082684A60002202610868401E0860086831
:1050C00070470000034B0360034B0B6040231360E9
:1050D00070470000B400002008010020014608319C
:1050E00041600022D2438260C16001610021016001
:1050F000704700210161704730B40C68621C02D017
:105100000246083202E0026904E01A4653681D684C
:10511000A542FAD953684B6099608A605160086172
:105120000168491C016030BC704742684A6093685E
:105130008B6093685960916008610168491C016047
:105140007047000072B604480168491C0160BFF353
:105150004F8FBFF36F8F7047B0000020054908687C
:10516000002805D0401E0860002800D162B67047B4
:1051700072B6FEE7B000002070B500281AD00838DB
:1051800004460D4D6068E968084201D172B6FEE739
:105190002268002A01D072B6FEE78843606000F002
:1051A00069F860686968401868602046FFF7B0FEDB
:1051B00000F066F970BD000098000020012004494D
:1051C00000074860BFF34F8FBFF36F8F7047000039
:1051D00000ED00E010B502460020002A0DD009487D
:1051E000406B002801D072B6FEE700F043F80021C2
:1051F0001046FFF783FD00F043F9002801D1FFF7C7
:10520000DDFF10BD6000002010B586B000240594BD
:10521000049403AA04A905A8FFF754FF059804996C
:1052200001910290002300940EA11048039A00F00F
:10523000A4F80F490863002801D0012000E00020F5
:10524000012803D0401C0AD172B6FEE772B60020D6
:10525000C043C862012088610C6100F047F806B0C5
:1052600010BD000049444C4500000000214E0008DC
:10527000600000200248416B491C416370470000F8
:105280006000002010B4174B586B002803D0012099
:10529000186210BC70470020186258691421024639
:1052A0004A4311498A58002A07D1002817D0401EC6
:1052B000142242438A58002AF7D01422424351183C
:1052C0004A6852684A600C460834A24201D15268CA
:1052D0004A604968C9681960586110BC704772B665
:1052E000FEE7000060000020A004002010B509487F
:1052F000016AFF22120411430162016A1202114382
:105300000162FFF743FE044900200860FAF72AFF14
:10531000002010BD00ED00E0B0000020FFB585B01A
:105320000F9F0E9E07988000FFF74EFE054628004F
:105330000BD05420FFF748FE0446002C01D0256313
:1053400004E02846FFF718FF00E00024002C10D0EE
:10535000002051210855039001970096029405A85A
:105360000FC8FFF769FD2046FFF7F4FC012009B0E4
:10537000F0BD0020C04309B0F0BDF0B585B00746D0
:105380000B9D0C9C0A98002D16D0002C16D054268C
:1053900003962563022551263555002504AE00905D
:1053A0000196039502943846FFF746FD2046FFF725
:1053B000D1FC049805B0F0BD72B6FEE772B6FEE708
:1053C000F8B500262C4F786B002808D0F869401CEF
:1053D000F861386A002800D001263046F8BD3D69E2
:1053E0006D1C3D61002D0ED178680068002801D049
:1053F00072B6FEE77868B9687960B860786A401C70
:105400007862FFF7B1FDF86A85420ED378680068CC
:10541000002807D07868C068C468606885420ED2EA
:10542000F86202E00020C043F86238681421C06AC4
:105430004843124908580128CBD90126C9E7201D45
:10544000FFF72CFEA06A002803D020461830FFF793
:1054500025FEE06A7969884200D9786114214843C1
:1054600006494018211DFFF760FEE06A3968C96AE5
:105470008842CBD30126C9E760000020A0040020A9
:10548000F8B500240027284D686B002808D0FFF7E6
:1054900059FE686B401E6863686B002802D03FE0CD
:1054A00072B6FEE7E86800283AD0204E306800283F
:1054B0001ED0F068C46820461830FFF7EFFD201DAD
:1054C000FFF7ECFDE06A6969884200D96861142140
:1054D000484317494018211DFFF727FEE06A296855
:1054E000C96A884201D30120286230680028E0D1CF
:1054F000002C01D0FFF738FDEC69002C0AD0012602
:10550000FFF75EFF002800D02E62641E002CF7D14A
:105510000020E861286A002802D00127FFF74EFE2C
:10552000FFF71CFE3846F8BD60000020540500203F
:10553000A004002070B501251C002D050C4310D4DB
:10554000EC4206D4AC420AD48B4200D070BD8242F9
:1055500070BDEB4217D4E94215D48B4270BD9B421B
:1055600070BDEC4206D5AC42F9D5994200D070BD71
:10557000904270BD6D005C00EC4204D24C00EC42E5
:1055800001D2994270BD0FB4034C0CBC03BC30B4C3
:10559000FBF788FC30BC70BD1900160470B50125FE
:1055A0000400ED074C4020D4441A01D2001B091915
:1055B000C60D4B00F2B2FF2A29D01B0E2CD00002E0
:1055C0000C02D31A2C43DC402843051910D2280AB8
:1055D00002D3401C6D0611D0761EF6058019FF2AF5
:1055E00000DA70BDC00DC00570BD694000F0B2F8B2
:1055F00001200543C541521C761CE8E764089C4025
:10560000C90161408900E7D10124A043E4E71B0EF2
:10561000440200D0034870BD002AFCD1C00FC0076F
:1056200070BD00BF0000C07F70B5420064414B00F8
:105630005C41120E39D01B0E38D0FF2A3CD0FF2B14
:105640003AD040024902400A490A060045184E4332
:10565000000A090AD2184843ED017F3A0104731A7F
:105660004019190C4318990F04D001215B08490710
:105670005B1A521CD80904D3401CF50301D19D06C6
:1056800007D0FF2A08D2D50506D0E40720434019E9
:1056900070BD0125A843F4E7002A01DCE00770BDD6
:1056A0002402FF202043C00570BD1B0EFF2A03D03B
:1056B000FF2B01D0E00770BDFF2645003606B5423E
:1056C00006D84D00B54203D8D218FF2A00D0E7E72C
:1056D000004870BD0000C07F01230A00DB050243C3
:1056E0000DD4DA4203D49A4207D481427047D9429A
:1056F00014D4D84212D48142704789427047DA42AA
:1057000003D59A42F9D5884270475B004A00DA42D5
:1057100004D24200DA4201D28842704748404140F8
:1057200010B5024A4840FBF705FC10BD09001604FD
:1057300070B50125ED07684004004C4002D5694072
:1057400000F008F8FFF730FF70B501250400ED0701
:105750004C4022D4441A02D26C40001B0919C60DD9
:105760004B00F2B2FF2A4BD01B0E50D000020C02AD
:10577000D31A2C43DC40A843051B05D5AD0019D333
:105780006D08761E521E37D0F605280A01D2801900
:1057900070BD70416D0603D070BD6940FFF704FF16
:1057A0009C4009026140490001D0401E70BD0124A7
:1057B000A04370BD6D081DD001202B0C01D12D041C
:1057C00010302B0E01D12D0208302B0F01D12D01ED
:1057D000001DAB0F01D1AD00801CEB0F01D16D009E
:1057E000401C6D00361A121A680AF5054019012A84
:1057F00002DB70BD002070BDC036300AC00770BD2E
:105800001B0E440201D1FF2B00D1024870BD002ABB
:10581000F0D070BD0000C07F6C590008234500081F
:105820000000000000000000400000000000000038
:10583000000000007859000879130008FDFF0000FF
:1058400000000000C8000000000000000000000090
:1058500060590008893F0008FDFF000000000000BB
:10586000400000000000000000000000885900080F
:1058700021130008FDFF00000000000040000000B0
:105880000000000000000000000000000000000018
:1058900001020304060708090000000001020304D6
:1058A00080807F7E7D7C7B7A79787776767574735D
:1058B000727171706F6E6E6D6C6C6B6A6A6968681C
:1058C000676666656464636362616160605F5F5EB2
:1058D0005E5D5D5C5C5B5B5A5A5959585857575628
:1058E000565555555454535352525251515050508D
:1058F0004F4F4F4E4E4D4D4D4C4C4C4B4B4B4A4ADF
:105900004A49494948484847474747464646454522
:10591000454444444443434343424242424141415B
:105920008182838485868788898B8C8D8E8F9192E6
:1059300093959697999A9C9D9FA0A2A3A5A7A8AA84
:10594000ACAEB0B2B3B5B7B9BCBEC0C2C5C7C9CCA6
:10595000CED1D4D7D9DCDFE2E6E9ECF0F3F7FAFEFA
:105960004C65645368696E6500000000646566619B
:10597000756C745461736B00426F6F7374436F6E18
:1059800074726F6C000000004164634F7574000016
:10599000B059000800000020B40000000401000815
:1059A000645A0008B400002094150000200100088B
:1059B00000000000000000000000000000000000E7
:1059C00000000000040000000100000000127A0046
:1059D00000000000333353400000803FCDCCCC3D6D
:1059E0000000000000000000000020410000004016
:1059F00000000000000000000000000000000000A7
:105A00000000000000000000000000000000000096
:105A10000000000000000000000000000000000086
:105A20000000000000000000000000000000000076
:105A30000000000000000000000000000000000066
:105A40000000000000000000000000000000000056
:105A50000000000000000000000000000000000046
:045A6000AAAAAAAA9A
:04000005080000C12E
:00000001FF
