:020000040800F2
:10000000107E0020AD0200081F590008275000088C
:100010001D590008ED0B0008396B000800000000B6
:10002000000000000000000000000000ED010008DA
:10003000731400080000000049020008115C000869
:10004000C7020008C7020008C7020008C70200086C
:10005000C7020008C7020008C7020008C70200085C
:10006000C7020008C7020008C7020008951300086D
:10007000A1130008AD130008B9130008C513000848
:10008000C702000800000000F9040008C7020008C9
:10009000C702000879140008C7020008C702000858
:1000A000B95C0008F15C0008D55C0008C7020008D4
:1000B0000D5D0008C7020008C7020008C70200085B
:1000C000C7020008C7020008C7020008C7020008EC
:1000D000C70200083D6A0008556A00086D6A0008FA
:1000E000C7020008C7020008C7020008C7020008CC
:1000F000195D0008C7020008C702000800000000E0
:1001000000000000C702000800000000C70200084D
:10011000C702000800000000C7020008C70200086C
:10012000C7020008C7020008C7020008C70200088B
:10013000C70200080000000000000000C70200081D
:10014000C7020008C702000800000000000000000D
:10015000000000000000000000000000000000009F
:10016000000000000000000000000000C7020008BE
:10017000C7020008000000000000000000000000AE
:1001800000000000C702000800000000000000009E
:10019000000000000000000000000000000000005F
:1001A0000000000000000000C7020008C7020008AD
:1001B000C7020008C7020008C702000800000000CC
:1001C00000000000C702000800000000000000005E
:1001D000C7020008C7020008DFF80CD000F0ECF8F6
:1001E00000480047396C0008107E00202C4B19682D
:1001F0000868B0E8F04F80F30988BFF36F8F4FF0C5
:10020000000080F311887047000000000848006873
:10021000006880F308884FF0000080F3148862B60D
:1002200061B6BFF34F8FBFF36F8F00DF00BF00BF1A
:1002300008ED00E0DFF80C00016841F47001016096
:10024000704700BF88ED00E0EFF30980BFF36F8FC8
:10025000134B1A681EF0100F08BF20ED108A20E91A
:10026000F04F106009B44FF0500080F31188BFF3D5
:100270004F8FBFF36F8F07F085F84FF0000080F3CA
:10028000118809BC19680868B0E8F04F1EF0100F1B
:1002900008BFB0EC108A80F30988BFF36F8F7047F6
:1002A00038000020EFF305807047000006488047C3
:1002B00006480047FEE7FEE7FEE7FEE7FEE7FEE74B
:1002C000FEE7FEE7FEE7FEE7A95C0008D9010008AB
:1002D0002DE9F05F0546002092469B46884606467B
:1002E000814640241BE0284641464746224600F00E
:1002F00053F853465A46C01A914110D31146184636
:10030000224600F03AF82D1A67EB01084F462246C4
:100310000120002100F031F817EB00094E41201EAA
:10032000A4F10104DFDC484631462A464346BDE8D5
:10033000F09F40EA01039B0703D009E008C9121FA0
:1003400008C0042AFAD203E011F8013B00F8013B8F
:10035000521EF9D27047D2B201E000F8012B491EBB
:10036000FBD270470022F6E710B513460A46044652
:100370001946FFF7F0FF204610BD202A04DB203A83
:1003800000FA02F1002070479140C2F1200320FAE8
:1003900003F3194390407047202A04DB203A21FAE6
:1003A00002F00021704721FA02F3D040C2F120028E
:1003B0009140084319467047064C074D06E0E06837
:1003C00040F0010394E8070098471034AC42F6D39C
:1003D000FFF706FF207800084078000870B58C18F9
:1003E00010F8015B15F0070301D110F8013B2A1149
:1003F00006D110F8012B03E010F8016B01F8016B36
:100400005B1EF9D12B0705D40023521E0DD401F831
:10041000013BFAE710F8013BCB1A921C03E013F8FA
:10042000015B01F8015B521EF9D5A142D8D300202F
:1004300070BD0000DFED080A20EE200ADFED070A9C
:1004400080EE201ABCEEC10A10EE100A80B2FF281E
:1004500000D3FF20C0B2704700007F430000C842B5
:1004600070B5094D4FF4804400222146284602F021
:10047000A9FE012006F02AFC21462846BDE870406E
:10048000012202F09FBE00000004004810B50146A2
:1004900090ED000AFFF7CEFF024691ED010AFFF74B
:1004A000C9FF064B40F4807004491A8058806423C9
:1004B000BDE810400222024803F054BE640100204F
:1004C0000404002010EE100A0849884201DAB1EE57
:1004D0000A0ADFED070AB3EE061A40EE410A9FED65
:1004E000051A30EE411A80EE810A70470000D040B4
:1004F0009A991F449A99993F10B5044801F01EFB40
:10050000BDE81040024801F019BB0000980100202E
:100510000402002010B5846AE16D11F0500F06D07E
:10052000E16DC90625D5204601F003FB10BDE06D45
:1005300040F40070E06520680168090716D504F0F2
:1005400085FD78B12068C068800400280ADBE06D72
:1005500020F48070E065E06DC00403D4E06D40F0ED
:100560000100E065204601F0E1FA10BDC068800797
:10057000EBE7616D496BBDE81040084710B5806A34
:10058000C16D41F04001C165016E41F00401016699
:1005900001F0CFFA10BD10B5806A01F0C9FA10BDA4
:1005A00070B50446006881688268C1F3400112F0AA
:1005B000010F28D039BB816801F00D01012914D148
:1005C0008168124A1140891C8160216803200860FB
:1005D00002F0FEFD054612E002F0FAFD401B022883
:1005E0000DD920688068C00709D0E06D40F0100088
:1005F000E065206E40F001002066012070BD20689B
:100600008068C007E8D1002070BD0000C0FFFF7FF8
:1006100070B504460068816811F0010F2DD1816822
:10062000174A11421AD18168D5432940491C81607B
:1006300002F0CEFD06461BE0816811F0010F03D1E8
:1006400081682940491C816002F0C2FD801B02289C
:100650000ED920680068C043C00709D0E06D40F0A3
:100660001000E065206E40F001002066012070BDA2
:1006700020680168C943C907DED1002070BD0000B1
:100680003F0000802DE9F0478249834F00202DED87
:10069000068BD1ED021AD1ED032AD1ED043ADFED3C
:1006A0007F0A01F13402B0EE081AB2EE063A131FC7
:1006B00001F120049FED7A2A251F01F12809794EC6
:1006C000B2EE044A0621A2F1080A00BF57F820C082
:1006D00000EE10CA06EB800CF8EE404A84EEA00A49
:1006E00020EE010A8CED000A90FBF1FC01FB1C0CD2
:1006F000BCF1000F90FBF1FC21D001FB1C0CBCF104
:10070000010F90FBF1FC1DD001FB1C0CBCF1020F92
:1007100090FBF1FC1DD001FB1C0CBCF1030F90FB06
:10072000F1FC1FD001FB1C0CBCF1040F25D090FB89
:10073000F1FC01FB1C0CBCF1050F2FD034E002EBE7
:100740008C0C01E003EB8C0C20EE210A20EE030A56
:1007500028E060EE214AB0EE420A04EB8C0C14EE65
:10076000A30A07E060EE214AB0EE420A05EB8C0CCA
:1007700014EEA20A20EE040A14E0DFED4B4A50EE1C
:10078000214A9FED4A5A90FBF1F884EE850AF3EE78
:100790000E4A09EB880C30EE240A03E090FBF1F8D6
:1007A0000AEB880C8CED000A401C06288EDBD4ED89
:1007B000008A404CD9ED000AD3ED009A92ED000A70
:1007C00095ED009A9AED008A9FED39AAC4ED090AC9
:1007D00004F5B87006F0B2F984ED9A0AB0EE690A31
:1007E00004F5A27006F0AAF984ED990A94ED0A0ABC
:1007F00004F13C0030EE090A06F0A0F984ED020A8B
:10080000D4ED000A04F5CE7020EE800A06F096F9C9
:1008100084ED070A94ED0B0A04F1C00030EE280ABB
:1008200006F08CF910EE100A84ED980A84ED030AA4
:10083000214D84ED058AB0F17E5F03DB02F0C8FC38
:1008400028640CE010EE100A1C49884207DC10EE08
:10085000100A1B49884202D802F0BAFC686495F875
:100860002B00012812D094ED060AB5EEC00AF1EE75
:1008700010FA01DAB0EE4A0AD4ED070A30EE800A27
:1008800084ED080ABDEC068BBDE8F08794ED070AFD
:10089000F6E70000A00000201058002000FF7F476E
:1008A0006666E63F345800205C8F423F0AD7233B00
:1008B000000000001C590020DC000020CDCC4C3E84
:1008C000CDCC4CBE2DE9F0413E4900202DED028BF0
:1008D00001F12402D1ED020A01F118033A4E9FED15
:1008E0003B2A3B4D0321F0EE081AB2EE061A1C1FFC
:1008F00056F8207000EE107A05EB8007F8EE402ADB
:1009000082EE820A20EE210A87ED000A90FBF1F7C1
:1009100001FB1707002F90FBF1F70AD001FB170727
:10092000012F90FBF1F707D001FB1707022F06D02C
:100930000FE002EB870706E003EB870703E090FB7D
:10094000F1F704EB870720EE200A20EE010A87ED7D
:10095000000A401C0328CBDB94ED008A1D4C92ED6D
:10096000000AD3ED008AD4ED0E0A04F1EC0020EE6B
:10097000800A06F0E3F884ED040A94ED0C0A04F111
:10098000940020EE080A06F0D9F884ED000A94EDF0
:100990000D0A04F1680020EE280A06F0CFF884ED75
:1009A000010A94ED040AD4ED030A04F5E47020EE84
:1009B000200A06F0C3F884ED060ABDEC028BBDE800
:1009C000F0810000A00000202858002000FF7F4791
:1009D0004C5800201C5900200549884201D1FFF7DE
:1009E00051BE0449884201D1FFF76CBF7047000037
:1009F000980100200402002001F094BB10B57F2173
:100A00000C4800F0CBFD7F210B4800F0C7FD1420FF
:100A100006F05CF9062209490648FFF7EDFF074991
:100A2000032218310448FFF7E7FFBDE81040142007
:100A300006F04CB998010020040200201058002054
:100A400030B50F4B1A89914218D10278A52A15D1D9
:100A50004218DB7812F8014C9C420FD112F8024C7C
:100A600000230122891E02E0855C521C2B448A422D
:100A7000FADBD8B2A04201D1012030BD002030BD48
:100A8000700100202DE9F047364C054601290ED0B3
:100A90002878A52850D12846FFF7D2FF00284BD050
:100AA0002F4601260025DFF8C090A04654E0012122
:100AB000217000784FF00008FF2804D0F12835D0CD
:100AC000F22835D036E0E088082100EB8000274D81
:100AD00001EB8007A0782870A0786870A870FF20CC
:100AE000E870002605F5FA7911E000BFC6EBC601F3
:100AF00009EB810106EB86004A7905EB8000891D30
:100B000002711322401DFFF714FC761CB6B2E08878
:100B10008642EBD3E819218A20F8041DA17C81705C
:100B2000BAB22946E06804F027FA03E0617001E0F8
:100B300084F8018084F80080BDE8F087C5EBC50229
:100B400009EB820159F822000C79B9192246FFF706
:100B5000F0FB6D1C2644ADB2B8F80A008542EDD317
:100B6000EAE7000070010020986800202C61002056
:100B700010B50446C06F006805F084FFC0F5FA7038
:100B800081B20448FFF77EFFE16F4FF4FA70096805
:100B9000486010BD385F00201CB5E1218DF80010C1
:100BA000114991ED020A80ED000A02788DF80120CA
:100BB00042788DF8022082788DF80320C2788DF873
:100BC000042000228DF8052091F82D108DF80610D4
:100BD00042218DF80710836840684FF4002269466F
:100BE00000F0C2FC1CBD0000DC000020FEE700009D
:100BF00010B500224FF40071034802F0E3FA0349F4
:100C0000002081F8500010BD00040048DC000020E6
:100C100010B501225102044802F0D4FA0349012020
:100C200081F8500010BD000000040048DC000020E6
:100C300010B539489FED370A2DED048B80ED0A0A77
:100C40009FED360A80ED0B0A9FED350A80ED0C0A08
:100C50009FED340A80ED0D0AB7EE000A80ED0E0A12
:100C60003C3005F0B5FF2C48683005F0B1FF2A484C
:100C7000943005F0ADFF2848C03005F0A9FF2648A4
:100C8000EC3005F0A5FF284805F0A2FF26482C30DF
:100C900005F09EFF2448583005F09AFF2248843022
:100CA00005F096FF2048B03005F092FF9FED1F8AB7
:100CB000DFED1F8A9FED1F9ADFED1F9AF0EE483A95
:100CC000B0EE483AF0EE682AB0EE492AF0EE481A43
:100CD000B0EE481AF0EE480AB0EE690A174805F07F
:100CE000A8FFF0EE483AB0EE483AF0EE682AB0EECF
:100CF000492AF0EE481AB0EE481AF0EE480AB0EE73
:100D0000690ABDEC048B0D48BDE81040203005F0A9
:100D100090BF0000295C8FBD1C5900200AD7A33D5D
:100D20001283803FF94E803F345A002000000000BB
:100D30000000C84217B7D1380AD7A33C3C5B00205B
:100D400070B5304D304E29462DED028B95F82B00B5
:100D500091ED130A9FED2D8A01280AD0D6ED060ADF
:100D6000F5EEC00AF1EE10FA01DAF0EE480A30EEC4
:100D7000600A274CD4ED000AB4EEE00AF1EE10FA56
:100D800001DAB0EE600A85ED010AB4EEE00AF1EE98
:100D900010FA05D8BDEC028BBDE87040FFF728BF04
:100DA000FFF736FF95ED010A1A4804F01AFE96ED9A
:100DB000070A184804F012FE1749164804F0B0FD5F
:100DC0001448D4ED010A154990ED070A30EE200AC7
:100DD00010EE100A84ED010A884204DDB0EE080A24
:100DE00084ED010A06E0B5EEC00AF1EE10FA01D278
:100DF00084ED018A94ED010ABDEC028BBDE87040E0
:100E000000F09AB9DC0000201C590020000000000E
:100E1000A0000020CC5E00203C01002000004040EB
:100E200070B5374C0546007894F82B607721B1EB0C
:100E3000500F64D102F0CCF9206294F82E0094F89F
:100E40002F100843297801F00101084384F82B0092
:100E5000012E03D110B902F0BBF9606394F82B00A6
:100E6000012803D116B902F0B3F9E063697801F003
:100E70000100C1F3800184F831106978C1F34001A9
:100E800084F832106978C1F3400184F84910A978D8
:100E90004A071C4903D41C4B0A689A4201DB012211
:100EA00000E0002284F84A2030B14868174988429F
:100EB00002DB9FED170A01E0B3EE080A84ED020A97
:100EC00094ED030AA978BCEEC00A10EE100A00EEF9
:100ED000101AC0B200EE900AB8EE400AF8EE600AAE
:100EE00084ED030AB4EE600AF1EE10FA01D084ED4D
:100EF000130AE878207495ED010A84ED050A70BDA7
:100F0000DC0000201C5900200000A041000010411E
:100F10000000DC4110B5084C00222021204602F0E0
:100F200051F901224021204602F04CF903490020EA
:100F300081F8290010BD000000040048DC000020FA
:100F400010B5084C01222021204602F03BF9002276
:100F50004021204602F036F90349012081F829009A
:100F600010BD000000040048DC00002010B5084C53
:100F70000122D103204602F025F900224FF48041DE
:100F8000204602F01FF90349012081F82A0010BD14
:100F900000080048DC00002010B5084C00224FF487
:100FA0000041204602F00EF901229103204602F092
:100FB00009F90349002081F82A0010BD0008004803
:100FC000DC0000202DE9F05F544C94F82B0094F8DD
:100FD0002E1094F82A50084394F82F10A94608437D
:100FE00084F82B0094F82C20012A0AD148B941B981
:100FF00002F0EEF8616A6438884202D302F0E8F841
:10100000606294F82B0094F82E1094F82F20084377
:10101000434F104384F82B00424B3A694FF00108CC
:1010200046469A420ADB84F85960002584F82D6010
:101030003D48FFF7B1FD294630466BE04FF0000B0D
:101040003A4ADFF8ECA084F859B0012802D1786858
:10105000904218DC012916D07868904202DD94F89D
:10106000300030B35FF0000584F82D6094F82B0059
:1010700084F82C007868504547DA02F0A9F8B9F1F5
:10108000010F19D019E07868504501DB0125EBE725
:101090005045EBDA84F82D6002F09AF8616C401A42
:1010A000142804D8206C814201D80025DEE70125F0
:1010B000DCE784F83060D9E755B1616C401A142838
:1010C00014D8206C814211D81A49786888420DDA08
:1010D00002F07EF8E16DDC38884207D302F078F840
:1010E0000025E065A84684F85B600EE094F85B009C
:1010F000012808D102F06CF8E16DC838884202D8A6
:101100000025A84601E084F85BB00748FFF744FDDE
:1011100041462846BDE8F05F00F058B8DC000020EA
:101120001C5900200000F0418C01002000004041CB
:101130000000B0410000604110EE100A07498842EB
:1011400002DBB0EE080A06E0B5EEC00AF1EE10FAD6
:1011500001D89FED030A00F0DDB800000000404018
:101160000000000010B5FFF7ADF9054880ED010A59
:101170009FED040A80ED000ABDE81040FFF786B934
:10118000680100200000000010B5074C00224FF459
:101190000041204602F016F82046BDE8104000222B
:1011A0004FF4804102F00EB80008004810B5064C1C
:1011B00000222021204602F005F820460022BDE84A
:1011C0001040402101F0FEBF0004004810B50C465D
:1011D000012807D0FFF7E0FE012C06D0BDE8104043
:1011E000FFF798BEFFF7C2FEF6E7BDE81040FFF735
:1011F000A7BE00001CB50D4840F299234FF4002211
:10120000017E8DF80010417E8DF80110817E8DF8F1
:101210000210C07E8DF8030005486946007E8DF8F7
:101220000400044800F0A0F91CBD00001C59002077
:10123000DC0000204403002000B51B4885B01C4B97
:10124000017C8DF80010417C8DF80110817C8DF8B7
:101250000210C17C8DF80310017E8DF80410417ED0
:101260008DF80510817E8DF806101049C07E8DF82E
:101270000700087E8DF8080008468A6890F82B0061
:101280009A4200F0010000DD801C91F830100B2222
:1012900040EAC10040F020008DF809006946054889
:1012A00003F06AFE05B000BD1C590020DC000020E0
:1012B0000000D84104070020054800219FED050AE1
:1012C00080F8281080ED030A80ED130A70470000B3
:1012D000DC0000200000344210B500210A4C0B480D
:1012E0009FED0B0AC4E90101217084ED040AE1605D
:1012F00061700B460A4601F0A9F8A168BDE81040EC
:10130000024801F0B0B80000585800203003002017
:101310000000000010EE100A1549884202DB9FED24
:10132000150A06E010EE100A1349884201DC9FED11
:10133000130A9FED131A1448144AC0EE010A9FEDD8
:10134000111A60EE810AFCEEE00A10EE901AC160FC
:1013500080ED040A11600E4909684A6842F00102F2
:101360004A600121017000214170817070470000C6
:101370005C8F52405C8F52400AD7233C0000000033
:101380003333534000F07F45585800200808005080
:1013900030030020014801F00BB90000700200206A
:1013A000014801F005B9000094070020014801F050
:1013B000FFB80000D0020020014801F0F9B8000099
:1013C000F4070020014801F0F3B8000054080020A1
:1013D0000D4902688A4201D20C4901E00B492031D3
:1013E000D2B21423083AB2FBF3F2436C02F01F02AC
:1013F00023F003031944816404498031C16401214D
:101400009140016570470000080402400008024056
:101410000179074A02EB81024265054A4432491EBE
:10142000826501F01F0201219140C16570470000F3
:10143000FC08024030B5D0E913456560446D14B135
:10144000D0E91645656090F8444004F01F0501247A
:10145000AC40056C6C60046863608368102B0368A3
:1014600003D099600068C26030BD9A600068C160B6
:1014700030BD704772B6FEE7014801F030BB000096
:1014800044030020F0B5D1E901650C692C430D68D7
:10149000BEB145F080452C43D1E90665354391F84E
:1014A00020704E69406D46EA07663543CE6803EB0F
:1014B000C303354300EBC3000023E0E802450A4CB8
:1014C0000AE044EA8544E7E7D618D55CD6F801601F
:1014D0001B1D45EA062520C0CD6804EB15452D7877
:1014E0009D42F1D8F0BD00005C77000830B50024C3
:1014F000039D0160B1F5006F03D34FF0804141605F
:1015000000E04460C0E90242C0E90443C0E9065477
:10151000046230BD10B588B000240220CDE902403D
:101520000120049001948002CDE9050401A90D4831
:1015300001F011FA0222002311460A48009401F03A
:1015400038FA084801F0F5FC00220121054801F0B5
:101550006DF900224FF40021024801F067F908B04C
:1015600010BD000044030020F8B505461E460020CB
:101570000C460346009031460748FFF7B7FF06497F
:101580002422A1F12400FEF7D4FE22462846BDE81D
:10159000F840014901F0BAB990580020F8B500268A
:1015A0000446009690F858000D4601280BD0012003
:1015B00084F858002046FEF7F3FF0100E06D04D0E8
:1015C00040F010002AE00220F8BD20F4885040F0DE
:1015D0000200E06520688268134B1A4005F08043E2
:1015E0001A4342F000428260104A20680EE0009BDD
:1015F0005B1C0093934209D3E06D20F0020040F0A1
:101600001000E06584F858600120F8BD8368DB0FA6
:10161000EDD1E06D20F0020040F00100E06584F8BB
:1016200058600846F8BD0000C0FFFF3F02DE04001E
:10163000704700F07FBA7047704770472DE9F04758
:10164000044690F858009CB00E464FF0000901285F
:1016500015D0012084F858000025179518952068AA
:101660004FF0A04840450ED1284F0097384603F070
:10167000E9FC8246206803F0E5FC60B10EE0022040
:101680001CB0BDE8F087E06D40F02000E06584F814
:1016900058500120F4E7BAF1000F09D0E06D40F096
:1016A0002000E0654FF0010984F858504846E7E70C
:1016B0001748326840F61F71002A826822F460429F
:1016C00016D094F8383042EA433273681A43826085
:1016D000D8F80820BB6802F0010203F001031A43A6
:1016E000E2D1B36832681A4383688B431A430BE034
:1016F0008260D8F80820BB6802F0010203F0010301
:101700001A43D1D182688A438260CDE7000100503C
:10171000000300502DE9F84F00270446009790F889
:101720005800DFF8D8930D46B846012811D001269D
:1017300084F85860206803F081FC60B1E06D40F0EF
:101740002000E0655FF0010784F858803846BDE866
:10175000F88F0220FBE7D5E900210C23206803EA7B
:1017600091131844036B01F01F014FF01F0C0CFA8A
:1017700001FCC2F3846223EA0C038A40134303632F
:10178000206803F05BFC8246206803F053FC5AEAB1
:1017900000003CD1AA6829682068B2F1004F37D018
:1017A00003F05CFC2068416921F000414161206840
:1017B0006969C268C2F3C102520091402A69042AD1
:1017C00031D000EB82002B68026EDFF834C303F0E7
:1017D000F84302EA0C020B431A4342F0004101664F
:1017E00020682A69A96900EB8200026E22F08072EB
:1017F0000A430266297F22682869012910D0002146
:1018000002EB8000026E22F000720A4302667DE065
:10181000002203F023FC2068416941F00041C5E744
:101820004FF00071ECE7002103F0FEFB400320685D
:101830004FF0000172D003F0F7FB90FAA0F0B0FA7D
:1018400080F1286842036ED090FAA0F0B0FA80F0E0
:10185000814204D100221146206803F00EFC0121D0
:10186000206803F0E1FB400320684FF001015DD0E8
:1018700003F0DAFB90FAA0F0B0FA80F12868420396
:1018800059D090FAA0F0B0FA80F0814204D1002241
:101890000121206803F0F1FB0221206803F0C4FB62
:1018A000400320684FF0020148D003F0BDFB90FADE
:1018B000A0F0B0FA80F12868420344D090FAA0F07A
:1018C000B0FA80F0814204D100220221206803F0A6
:1018D000D4FB0321206803F0A7FB400320684FF0EE
:1018E000030133D003F0A0FB90FAA0F0B0FA80F12E
:1018F000286842032FD090FAA0F0B0FA80F081421D
:1019000004D100220321206803F0B7FB206881681E
:1019100011F0010F22D0A8E000E004E003F084FB06
:10192000C0F384618DE7C0F3846091E703F07CFB32
:10193000C0F38461A2E7C0F38460A6E703F074FB00
:10194000C0F38461B7E7C0F38460BBE703F06CFBCE
:10195000C0F38461CCE7C0F38460D0E7EB6829680A
:101960004B4550F8B03FC1F3120101D10B4300E0E9
:101970008B430360E868484577D1286841031CD051
:1019800090FAA0F1B1FA81F1491C01F01F01092977
:101990004FEA403132D8002912D000BF90FAA0F1AE
:1019A000B1FA81F101F1010101F01F0106FA01F61E
:1019B00009D100BFC0F3846109E0C0F38461E3E7AB
:1019C000C0F38461EEE790FAA0F1B1FA81F101F180
:1019D000010101F01F0146EA816102D1C0F3846078
:1019E00003E090FAA0F0B0FA80F000F1010000F0FE
:1019F0001F0000EB400041EA005132E000290ED008
:101A000090FAA0F1B1FA81F101F1010101F01F0199
:101A100006FA01F606D100BFC0F3846106E0C0F308
:101A20008461F1E790FAA0F1B1FA81F101F10101CD
:101A300001F01F0146EA816102D1C0F3846003E036
:101A400090FAA0F0B0FA80F000F1010000F01F0061
:101A50002C4A00EB400002EB005041EA000141F04B
:101A60000071AA68206803F0F9FA27482A68024240
:101A70003FF46AAE25488168254B01F0E0719A4237
:101A800002D0244B9A421CD10B021AD42268B2F124
:101A9000A04F7FF459AE826841F4000122F0E07259
:101AA0000A4382601C481D490068B0FBF1F0401CED
:101AB00000EB4000800000E0401E00900028FBD1B9
:101AC00042E6174D174BAA4207D1CD0105D4226833
:101AD0009A42F5D041F0807109E0134DAA42EFD14E
:101AE0004A02EDD422689A42EAD041F48001826829
:101AF00022F0E0720A43826026E6000000007F4088
:101B000000F0FF03000020FE0000088000030050EA
:101B1000000021C31000C09034000020400D0300DD
:101B2000000052C700010050000084CBFEF754BFF4
:101B3000704770470068006C704700002DE9F05F47
:101B40000446006806684568DFF854B2DBF8080010
:101B500000F01F07B0070ED5A8070CD5E06DC00632
:101B600003D4E06D40F40060E0652046FFF760FDBF
:101B7000216802200860DFF82CA270074FF0A0480F
:101B800001D5680703D4300737D5280735D5E06D70
:101B9000C00603D4E06D40F40070E065206803F0F7
:101BA00055FA20B32068504501D1424600E0024674
:101BB000824208D03FB1052F05D0092F03D05045F0
:101BC00003D1414602E0C16801E00146C9688904C9
:101BD0000DD4016809070AD503F030FA58B3E06D57
:101BE00040F01000E065206E40F0010020662046C5
:101BF000FFF79CFF21680C200860B00601D5A806FD
:101C000003D4700658D5680656D5E06DC00603D4D7
:101C1000E06D40F40050E0652068C16C11F4C07FB5
:101C20001AD00021894603F011FA02462068504577
:101C300014D1434613E02068416821F00C01416053
:101C4000E06D20F48070E065E06DC004CFD4E06DFD
:101C500040F00100E065CAE70121E3E70346834263
:101C600008D03FB1062F05D0072F03D0504503D130
:101C7000414602E0C16801E00146C968B9F1000FC0
:101C800014D08B0102D58AB18A040FD4026852069F
:101C90000CD589020AD403F0CDF9E8B3E06D40F029
:101CA0001000E065206E40F0010020662046FFF73E
:101CB000C0FC21686020086030060BD5280609D5D5
:101CC000E06D40F48030E065204600F06BF921685B
:101CD00080200860F0050CD5E8050AD5E06D40F4D9
:101CE0000030E0652046FFF7A7FC21684FF48070C4
:101CF0000860B0050CD5A8050AD5E06D40F4802039
:101D0000E0652046FFF799FC21684FF400700860F9
:101D1000F0062ED5E80600E008E02AD5E06BD0B149
:101D2000AFB1DBF8080000F4604013E020684168C0
:101D300021F060014160E06D20F48050E065E06DCD
:101D4000C005B3D4E06D40F00100E065AEE7206867
:101D5000C068C00750B1E06D40F48060E065206E5F
:101D600040F0020020662046FFF7E3FE21681020C5
:101D70000860700512D5680510D5E06D40F480400C
:101D8000E065206E40F00800206621684FF4806016
:101D900008602046BDE8F05FFFF74DBCBDE8F09F4E
:101DA0000003005000010050F8B54FF0000504009A
:101DB0002E46009502D0E06D10B107E00120F8BD7D
:101DC000204600F0F1F8266684F8586020688168A3
:101DD000C1F3407119B181686A4A1140816020687D
:101DE0008168C1F3007189B98168674A114041F087
:101DF00080518160654866490068B0FBF1F04000A1
:101E0000801C00E0401E00900028FBD12068816803
:101E1000C1F3007141B9E16D41F01001E165216E3E
:101E200041F001012166012503F008F9E16DC906C1
:101E300000D430B1E06D40F01000E0650125284687
:101E4000F8BDE06D20F4807040F00200E06520688D
:101E5000806810F0010F11D14FF0A04080684D490B
:101E600000F00100896801F00101084306D14A48E9
:101E70006168826822F47C120A438260E168E06B48
:101E8000627F0843A16841EA4231084394F8241074
:101E900040EA0140012904D1218D404A02EB414131
:101EA0000843E16A29B101F47871226B014342EAE7
:101EB00001002168CA683A4B1A400243CA60206890
:101EC0000169626B21F0406111430161206803F0F8
:101ED000B5F80646206803F0ADF830432ED1207FD8
:101EE00094F83810800340EA41022068C16844F247
:101EF000020399431143C1602069002820680169E9
:101F00000AD041F480310161206850F8C01F226975
:101F10006FF30D01114307E021F480310161206866
:101F200050F8C01F6FF30D01016094F840000128C4
:101F30000CD02068016921F001010161606901286C
:101F40002068016B21F00F0111D013E0D4E91101D9
:101F50000843D4E913121143084321680A6940F287
:101F6000FC739A43104340F001000861E6E7226ADF
:101F7000521E11430163E06D20F0020040F00100A9
:101F8000E0655CE7C0FFFF5FC0FFFF7F340000201B
:101F9000400D030000010050000300500000FEFF50
:101FA0000740F0FF704700002DE9F04F97B006465C
:101FB000142111A8FEF7D6F944216846FEF7D2F99C
:101FC0004FF40040316800258203504F504C4FF0D1
:101FD00003084FF080094FF4007A4FF4006BB1F121
:101FE000A04F10D04B4B99425AD10F9200906846A7
:101FF00001F056FB08B1FFF73DFA3868401C386025
:10200000012850D057E00F920090684601F048FB3D
:1020100008B1FFF72FFA3868401C3860012807D153
:10202000E06C40F40050E064E06C00F40050169066
:10203000E06C40F00100E064E06C00F001001690FC
:10204000E06C40F00200E064E06CCDF8448000F009
:102050000200CDE912851690444611A94FF0904038
:1020600000F084FF11A92C481194CDE9124500F02D
:102070007DFF2B4C294820600520C4E90105202064
:10208000C4E906B000022062204633E074650022F5
:1020900005211220A66201F06BFA122001F05AFA13
:1020A00017B0BDE8F08FE06C40F40050E064E06CE5
:1020B00000F400501690E06C40F00100E064E06C29
:1020C000139500F001001690E020CDE9110811A948
:1020D0004FF0904000F04AFF1048114C2830603417
:1020E00020602420C4E901052020C4E906B00002D4
:1020F0002062204604F10C0181E8200600F0B6FAC7
:102100000028C3D0FFF7B6F9C0E700002000002088
:102110000010024000010050000400480800024086
:10212000700200202DE9F0410446344817468846E5
:10213000806800F01F05206802F080FF00285AD157
:1021400094F85800012856D0012084F85800002641
:1021500025B1052D02D0092D00D003E02046FEF761
:1021600057FA18B184F85860BDE8F081E06D40F688
:102170000161884340F48070E0652149206888420D
:1021800002D14FF0A04100E00146814200D01DB9CC
:10219000E06D20F48010E065E06DC00404D5206E91
:1021A00020F00600206600E02666616D1548C862D2
:1021B000616D15480863616D1448486321681C20EF
:1021C000086084F858602068416841F0100141605F
:1021D0002068C16841F00101C16021683B46424668
:1021E0004031606D00F0CAFA21688A68084B1A40D5
:1021F000121D8A60B8E70220B6E700000003005015
:102200000001005015050008970500087D0500082D
:10221000C0FFFF7F2DE9F0470446407990460D4608
:1022200001280BD04FF0010984F80590022020719D
:10223000A96808F01006042903D045E00220BDE893
:10224000F08700F0C5FF07465FEA08004FF003087B
:1022500005D01CE000F0BCFFC01B01280FD820688F
:10226000406B0004F6D4012000F0CEFA2168686AC1
:10227000086416E000F0ACFFC01B012807D92069F4
:1022800040F00800206184F804800320D7E720682C
:10229000406B0028EEDB012000F0B6FA2168686A86
:1022A00048642068816C40F2FF32B2409143AA6AD0
:1022B000B240114381642068C16CFF22B240914357
:1022C000EA6AB2401143C164E869012808D1226872
:1022D000916B1F20B0408143286AB040084390634F
:1022E0002068C06B0721B1408843A969012903D048
:1022F000022955D06969E9B300216B69AA681A43BC
:102300000A434FF4807101FA06F398432B79012BAD
:1023100000D0002111434FF4007202FA06F39843F3
:102320006B79012B00D0002220F44047286842EA54
:102330000108022836D00743216808FA06F038431E
:10234000C863206801684FF48042B2409143016045
:102350002268116840F6FE70B0408143E868B040E2
:102360000843106020680168C022B24091430160B8
:10237000287B00E014E0297C2268C0F3830001F090
:102380003C0140EA8110116E40F60F73B34099434F
:10239000B0400143116684F80490002060714EE75C
:1023A0000121AAE701F0CEFB0549884202D947F492
:1023B0000047C1E703498842BED947F48047BBE7DD
:1023C0000068890900B4C40470B5040003D0207902
:1023D000002510B105E0012070BD6571204600F0B8
:1023E00007F802202071256101202071002070BDB6
:1023F00010B586B0044614216846FDF7B3FF1149B5
:10240000206888421BD11048C16C41F48031C164FE
:10241000C16C01F480310591C16C41F00101C164CE
:10242000C06C694600F00100059010200090032068
:102430000190002002904FF0904000F097FD06B010
:1024400010BD0000000800500010024018B50068E0
:10245000C46B0090104421B1143000900360002040
:1024600018BD0830F9E72DE9F041044640790D46E2
:10247000012822D04FF0010884F805800226267139
:1024800021680A6805F0100708FA07F002430A609D
:10249000404600F0B9F92068016885B101F478116F
:1024A000BE40B14203D1416841F00201416084F86D
:1024B000048000206071BDE8F0810220FBE7C1F3D9
:1024C00044010129F3D1416841F00101EEE710B563
:1024D00090F8253000210122022B03D00421C16392
:1024E000012122E003681C6824F00E041C60836C48
:1024F0001C6824F480741C6003681C6824F00104C8
:102500001C6090F84430046C03F01F0302FA03F3DC
:102510006360D0E913345C60436D33B11C6824F40C
:1025200080741C60D0E916345C6080F8252000229D
:1025300080F82420084610BD70B590F825200024AE
:1025400001212346022A07D00422C26380F8251005
:1025500080F82430012429E00268156825F00E0572
:1025600015600268156825F001051560826C156814
:1025700025F48075156090F84420056C02F01F0268
:1025800001FA02F26A60D0E913255560426D32B15A
:10259000156825F480751560D0E91625556080F81A
:1025A000251080F82430816B01B18847204670BD2A
:1025B000F0B4016C0C6801680D6890F8442002F0DA
:1025C0001F06042202FA06F3234211D06B070FD52F
:1025D0000B689B0603D40B6823F004030B6090F890
:1025E000441001F01F018A40016C4A60016B1DE03C
:1025F000022303FA06F727424FF0000C4FF00102C6
:1026000018D0AF0716D50C68A40605D40C6824F0C2
:102610000A040C6080F8252090F8441001F01F0196
:102620008B40016C4B6080F824C0C16A00291AD02D
:10263000F0BC08470823B340234214D02B0712D51F
:102640000B6823F00E030B6090F84410036C01F04C
:102650001F0102FA01F15960C26380F8252080F859
:1026600024C0416BE2E7F0BC7047000070B5040085
:102670000CD02B4A21681420914209D2294A0A44DD
:10268000B2FBF0F08000606427480AE0012070BDD2
:10269000234A52420A44B2FBF0F0800060642048B2
:1026A00008382064022084F825000A6847F6F07094
:1026B0008243D4E902031843D4E904352B43184379
:1026C000A3691843E3691843236A18431043086059
:1026D0002046FEF77DFEA0680025B0F5804F00D1B2
:1026E0006560A16C20790860D4E9130141606068DD
:1026F000401E032808D82046FEF78AFE606D05605C
:10270000D4E91601416002E06565A565E565E5630C
:10271000012084F8250084F82450002070BD0000BA
:1027200008040240F8FFFDBF0000024070B50446F7
:1027300090F82400002501280CD0012084F8240002
:1027400094F825600020012E06D084F8240002258C
:10275000284670BD022070BD022684F82560E06323
:102760002068066826F0010606602046FEF762FE35
:102770002068016841F001010160E9E770B5044695
:1027800090F82400002501280CD0012084F82400B2
:1027900094F825600020012E06D084F8240002253C
:1027A000284670BD022070BD022684F82560E063D3
:1027B0002068066826F0010606602046FEF73AFE0D
:1027C000206B00282068016802D041F00E0106E06D
:1027D00021F0040101602068016841F00A010160F4
:1027E000A06C0168C90303D5016841F480710160E0
:1027F000606D18B1016841F4807101602068016862
:1028000041F001010160CBE770B5044600F0E0FC47
:102810000546601C02D004484068044400F0D8FC1F
:10282000401BA042FAD370BD2800002030B590F8BC
:102830005C30012B07D0022B05D0016E41F0020164
:102840000166012030BD0468A36D4D0701D0DD078E
:102850001DD011F0380F01D09D0718D511F4E07F7D
:1028600001D05D0713D511F4F05F01D01D070ED51F
:1028700011F4604F01D0DD0609D511F4403F01D0BD
:102880009D0604D511F47C0F05D05D0603D4E56DDB
:1028900045F00105E5654C0701D0DC071DD111F0BD
:1028A000380F01D09C0718D411F4E07F01D05C07E9
:1028B00013D411F4F05F01D01C070ED411F4604F53
:1028C00001D0DC0609D411F4403F01D09C0604D4A9
:1028D00011F47C0F06D05B0604D50368DC6D44F070
:1028E0000204DC650B0604D5036853F8DC4F14437F
:1028F0001C60CB0504D5036853F8E04F14431C60FB
:102900000068426D0A434265002030BD70B5044640
:1029100090F85C00022803D0206E40F0080007E029
:102920002068D0F8C4309B0205D5206E40F40070BA
:102930002066012070BDD0F8C400C0F301452B46CD
:102940002046FEF79FFD21680120A840C1F8CC0079
:10295000A065002070BD10B590F85C20012A07D05A
:10296000022A05D0016E41F002010166012010BD6E
:102970000A687AB10B7B0A690C7A42EA43734A69A6
:10298000406C496842EA847200EBC100C0E9003241
:10299000002010BD0B7A4A690C8A42EA83720B7BD5
:1029A000006CDB06496843EA04431A4340F82120DF
:1029B000EEE730B590F85C50039C012D05D0016E18
:1029C00041F004010166012030BD0901006841EABF
:1029D000820141EA430150F8802F214322F03F0257
:1029E00011430160002030BD70477047F0B590F88A
:1029F0005C40022C03D0016E41F008014DE00468F8
:102A000040293DD0D4F898502D0743D0D4F89840B1
:102A1000C4F30126D0F84C4006EBC60504EBC50410
:102A2000256815F080455560256839D025F060454A
:102A300015602568284F05F00055956020CC05F0FD
:102A40000045156134F8045BADB2D56154F8045CFF
:102A500005F47025D56054F8045C05F480155561C3
:102A600054F8045C05F40015956154F8045CC5F352
:102A70000665156254F8045CED0F5562002518E0F8
:102A8000D4F890502D0705D0D4F89040C4F3012617
:102A9000846CC1E7016E41F4807101660120F0BDD4
:102AA000C5F38A45C4E700BF14F805C003F805C0A4
:102AB0006D1CD2F80CC007EB1C4C9CF800C0AC4558
:102AC000F2D80068402903D0C0F89C600020F0BD17
:102AD000C0F89460FAE700005C77000870472DE9C1
:102AE000F04704460068016D466D01F4E0510E4068
:102AF000016D476D01F007010F40016D426D01F05E
:102B0000380102EA0108016D456D01F471010D40C3
:102B1000016D426D01F4602102EA0109016D49066F
:102B200007D5416D490604D5402101652046FFF7D0
:102B3000D5FF2068016DC9050DD5416DC9050AD5C0
:102B4000D0F8D820D0F8E01011404FF48072026520
:102B5000204600F006FA2EB1206806653146204670
:102B600000F001FA2FB1206807653946204600F0D1
:102B7000BBF9B8F1000005D0216808654146204640
:102B800000F0D6F92068016D890508D5416D8905E9
:102B900005D54FF400710165204600F0E5F9206885
:102BA000016D09060CD5416D090609D5D0F8D42070
:102BB000D0F8DC10114080220265204600F0D2F9E6
:102BC0002068016D890408D5416D890405D54FF44D
:102BD00000510165204600F0C3F92068016D090429
:102BE00008D5416D090405D54FF400410165204623
:102BF00000F0B5F92068016D490409D5416D49041B
:102C000006D54FF480410165206E40F080002066BB
:102C1000B9F1000005D02168086549462046FFF754
:102C2000E4FE25B120680565206E28432066206EED
:102C3000002802D02046FFF7D7FEBDE8F08700004D
:102C40002DE9F041040006D0DFF8E88194F85C003B
:102C5000002518B107E00120BDE8F08184F85D503F
:102C6000204600F0EFF82068816921F010018161B1
:102C700000F0AEFA0646032705E000BF00F0A8FA10
:102C8000801B0A2811D8206880690007F6D42068C4
:102C9000816941F00101816100F09AFA06460BE07A
:102CA00000F096FA801B0A2806D9206E40F0010039
:102CB000206684F85C70CEE720688069C007EFD09A
:102CC0002068816941F0020181612168414502D19A
:102CD000594960680860207C01282068816937D0E4
:102CE00041F040018161607C01282068816932D017
:102CF00021F480418161A07C0128206881692DD068
:102D000041F48051816120688169A26821F4407199
:102D1000114381612068816921F0A40181612068EB
:102D2000016921F010010161E068012819D010B398
:102D300002281BD02068816941F0800181612068F0
:102D4000016941F010010161E06803280ED012E032
:102D500021F04001C6E741F48041CBE721F48051E6
:102D6000D0E72068816941F0040103E020688169AF
:102D700041F020018161207EE26940066FF0FF0191
:102D800001EB0222A0F100701043226AA38A521EB6
:102D900010430A0202EB034318432368D861A0687A
:102DA000B0F5407F10D1D4E90A0301EB0321401EA6
:102DB0000843216B131303EB01110843A18C02EBB1
:102DC000014108432168C860206850F8C01FE26BC9
:102DD0001143016019482064216851F8802FA38EA7
:102DE00022F4F81242EA03420A6014497031616425
:102DF000216851F8802F94F8383022F0706242EA4E
:102E000003620A600D49B031A1640D49E1640C49C7
:102E1000D83121650A49F031616500F5547120C04F
:102E20008842FCD3A5652566012084F85C0000205B
:102E300012E70000006400400065004000A400406C
:102E400088A5004010B598B00446142111A8FDF7DC
:102E500089FA44216846FDF785FA204920688842AE
:102E60003AD18014009040030C90684600F018FCA2
:102E700008B1FEF7FFFA1A48816D41F000718165D3
:102E8000816D01F000711691C16C41F00101C164C6
:102E9000C06C11A900F0010016904FF4C0501190C1
:102EA0000220129000201390032014900920159006
:102EB000C00600F05BF80B48416841F48021416096
:102EC000416841F40021416000220521152000F0F5
:102ED0004FFB152000F03EFB18B010BD0064004011
:102EE000001002400000014010B50446C80719D088
:102EF0000D492068884215D10C4B402103F1400256
:102F00002046FFF773FD094840300068982802D139
:102F10000648FDF785FF20460022BDE8104001214C
:102F2000FFF784BC10BD000000640040B4580020CE
:102F3000704790F85C10012905D0016E41F0040142
:102F4000016601207047022180F85C1001688A69DF
:102F500022F001028A61002101660846704770472D
:102F60007047704770477047704700002DE9F04F79
:102F7000DFF82092002301260324A9F1040B85B079
:102F80000F2709F1040AABF1040EFAE006FA03F583
:102F90002A407CD091F804C00CF0030CBCF1010F66
:102FA00002D0BCF1020F26D1D0F808C0CDF800C085
:102FB0004FEA430C04FA0CF8CDF810C0DDF800C05D
:102FC0002CEA080CCDF800C0D1F80C80DDF810C058
:102FD00008FA0CF8DDF800C048EA0C08C0F80880D0
:102FE000D0F804C02CEA050C0D79C5F300159D40FE
:102FF00045EA0C0545600D79ED43AD070ED0C56877
:103000004FEA430804FA08FC25EA0C05D1F808C089
:103010000CFA08FC4CEA050CC0F80CC00D7905F060
:103020000305022D16D1DD0800EB850CCDF808C094
:10303000DCF820805D074FEAD56C07FA0CF528EA2A
:1030400005080D6905FA0CF5DDF808C045EA080524
:10305000CCF8205005684FEA430CCDF808C004FABC
:103060000CFC25EA0C0591F804C00CF00308DDF80F
:1030700008C008FA0CF848EA0508C0F800804D6856
:1030800015F4403F7CD0444DD5F860C000E077E0B7
:103090004CF0010CC5F860C02D6E23F0030C05F058
:1030A000010500953D4D65440295AD684FEA837C6E
:1030B0004FEA1C7807FA08FC25EA0C05B0F1904F9E
:1030C00006D0DFF8DCC0604505D14FF0010C20E0F0
:1030D0004FF0000C1DE0DFF8CCC0604502D14FF08E
:1030E000020C16E0DFF8C0C0604502D14FF0030CBF
:1030F0000FE0DFF8B8C0604502D14FF0040C08E0E3
:10310000DFF8ACC0604502D14FF0050C01E04FF094
:10311000060C0CFA08FC4CEA050C029DC5F808C028
:10312000D9F80050CC46D1F8048095435FEAC8280E
:1031300000D51543CCF80050DAF80050D446D1F849
:10314000048095435FEA882800D51543CCF80050E9
:10315000DBF80050DC46D1F8048095435FEA8838FC
:1031600000D51543CCF80050DEF80050F446D1F8F5
:10317000048095435FEAC83800D51543CCF8005069
:103180005B1C0A6832FA03F57FF400AF05B0BDE8B6
:10319000F08F0000080401400010024000000140D0
:1031A0000004004800080048000C004800100048D7
:1031B00000140048426921EA02030A4043EA02413E
:1031C000816170470AB18161704781627047000078
:1031D00001488068704700002800002090F84120D6
:1031E000202A24D190F84020012A20D0012280F802
:1031F0004020242280F841200268136823F0010354
:1032000013600268136823F4805313600268136824
:103210000B43136001680A6842F001020A60202132
:1032200080F84110002180F84010084670470220C5
:10323000704790F84120202A22D190F84020012A9E
:103240001ED0012280F84020242280F8412002680C
:10325000136823F0010313600268136823F470639A
:1032600043EA0121116001680A6842F001020A6024
:10327000202180F84110002180F840100846704756
:103280000220704770B5040004D094F84100002576
:1032900010B106E0012070BD84F84050204600F0D7
:1032A0004DF8242084F841002068016821F00101D4
:1032B00001606068216820F07060086120688168A2
:1032C00021F400418160E0680128A06807D040F443
:1032D000044021688860E068022803D006E040F4DA
:1032E0000040F6E721684FF40060486020684168BC
:1032F000114A114341602068C16821F40041C16056
:10330000D4E904010843A16940EA01202168C860AA
:10331000D4E907010843216808602068016841F08A
:10332000010101606564202084F84100256384F870
:103330004250002070BD0000008000022DE9F041E5
:1033400098B00446142111A8FDF70CF844216846F2
:10335000FDF708F820492068884239D1402000252F
:1033600000900695684600F09BF908B1FEF782F8D8
:103370001A4CE06C40F00100E064E06C00F00100E9
:103380001690E06C40F00200E064E06C11A900F0DF
:10339000020016904FF4004012264FF0010881E819
:1033A00041010427CDE91457B006FFF7DFFD11A94D
:1033B000802081E84101CDE914570948FFF7D6FD87
:1033C000A06D40F40010A065A06D00F400101690F0
:1033D00018B0BDE8F0810000005400400010024029
:1033E0000004004870B5040011D021684CF6CC40B0
:1033F0000860216845F255500860D4E90001416039
:103400002168A0688860FFF7E3FE05460DE0012013
:1034100070BD00BFFFF7DCFE401B312805D92068D6
:10342000C068400701D0032070BD2068C068400715
:10343000F0D120680269E1688A4201D0016102E0AE
:103440004AF6AA210160002070BD00684AF6AA2150
:103450000160002070470000024881684268114402
:10346000816070472800002010B50024032000F080
:103470009FF80F2000F008F808B1012401E000F0E7
:1034800047F8204610BD000030B505461B4887B000
:10349000016E41F480210166006E06A900F48020CF
:1034A000009001A800F02EFB00F064FB1449154ABF
:1034B000B0FBF1F11448491E0260416040F2E7326E
:1034C0000021C0E90321816000F077FF040012D1E0
:1034D0000D4801F055F804000DD11A2000F03AF81B
:1034E000102D07D2002229461A2000F041F8074883
:1034F000056000E0012407B0204630BD0010024006
:1035000040420F0000480140B4080020280000207D
:103510000F4808B5016E41F001010166016E01F02E
:1035200001010091816D41F080518165806D002223
:1035300000F0805000900F21901E00F019F800F06C
:10354000D5FE022000F0DAFEBDE8084000F0A0B889
:1035500000100240002809DB00F01F020121914009
:103560004009800000F1E020C0F800117047000021
:10357000F0B40E4B1B680C46C3F30223C3F10705DE
:10358000042D00D90425191D072901D2002300E0CC
:10359000DB1E012606FA05F1491E214099409E4096
:1035A000761E16403143F0BC03F024BB0CED00E066
:1035B000064900F0070208684FF6FF03184040EA8A
:1035C0000220034A10430860704700000CED00E041
:1035D0000000FA052B492C4B0A6832214A432B493B
:1035E00040B1B0F5007F086829D020F4C06040F4F5
:1035F00080602CE00868C0F34120022804D051F814
:10360000800F20F4807022E0D1F8800020F48070D8
:10361000C1F88000086820F4C06040F400700860C1
:10362000B2FBF3F0401C00E0401E4A69520501D590
:103630000028F9D1486940050AD503207047C0F336
:103640004120022806D051F8800F40F480700860B5
:1036500000207047D1F8800040F48070C1F88000ED
:10366000086820F4C06040F400700860B2FBF3F01A
:10367000401C00E0401E4A695205DBD50028F9D104
:10368000D8E700003400002040420F0000700040E6
:103690000248816841F480418160704700700040B9
:1036A0002DE9F8430446006800269D4D00035ED5D1
:1036B000A86D0027C00008D4A86D40F08050A86510
:1036C000A86D012700F080500090DFF85892D9F8DB
:1036D000001041F48071C9F80010FFF779FD8046B1
:1036E00006E000BFFFF774FDA0EB080002282BD80E
:1036F000D9F80000C005F5D5D5F8900010F4407059
:1037000014D0216C814211D0D5F89000D5F89010DA
:1037100020F4407041F48031C5F89010D5F8901035
:1037200021F48031C5F89010C5F89000C00711D081
:10373000FFF74EFD804641F2883907E0FFF748FD6C
:10374000A0EB0801494501D903260BE0D5F890000C
:103750008007F3D5D5F89000216C20F44070084321
:10376000C5F890001FB1A86D20F08050A8652078A2
:10377000C00707D0D5F88800616820F0030008432F
:10378000C5F888002078800707D5D5F88800A1689B
:1037900020F00C000843C5F888002078400707D5C2
:1037A000D5F88800E16820F030000843C5F88800AB
:1037B0002078000707D5D5F88800216920F0C000DF
:1037C0000843C5F888002078800607D5D5F888001A
:1037D000616920F440600843C5F8880020784006FD
:1037E00007D5D5F88800A16920F440500843C5F8F2
:1037F00088002078000607D5D5F88800E16920F414
:1038000040400843C5F888002088C00507D5D5F892
:103810008800216A20F440300843C5F888002088D9
:10382000800507D5D5F88800616A20F44020084358
:10383000C5F88800208840050FD5D5F88800A16A12
:1038400020F440100843C5F88800A06AB0F5801F36
:1038500003D1E86840F48010E860208800050FD5A7
:10386000D5F88800E16A20F440000843C5F88800D4
:10387000E06AB0F5800F03D1E86840F48010E8609A
:103880002088C0040FD5D5F88800216B20F0407047
:103890000843C5F88800206BB0F1807F03D1E86849
:1038A00040F48010E86020884FF0006180040ED55D
:1038B000D5F88800626B20F040601043C5F888009E
:1038C000606B884203D1E86840F48010E86020888B
:1038D00040040ED5D5F88800A26B20F0406010435C
:1038E000C5F88800A06B884203D1E86840F48010D6
:1038F000E860208800040FD5D5F88800E16B20F03F
:1039000040500843C5F88800E06BB0F1805F03D1F8
:10391000E86840F48030E8603046BDE8F883000095
:1039200000100240007000402DE9F0470E460500EF
:103930004FF0000725D0DFF8AC81D8F8000000F088
:103940000F00B0420CD2D8F8001021F00F01314323
:10395000C8F80010D8F8000000F00F00B04210D1F5
:103960002968614CC80741F2883A5AD06868DFF884
:103970007C91032808D0022820682DD0400500281B
:103980002CDB0120BDE8F08720688001F9D5E068D4
:1039900000F00302E068C0F30310401C032A19D0B2
:1039A000534A00BFB2FBF0F0E268C2F30622504374
:1039B000E268C2F34162521C5200B0FBF2F048458B
:1039C00017D9A06810F0F00F0CD0880711D5A8689F
:1039D00040B10EE0474AE5E78003D0E700F0DCF8AD
:1039E000484506D9A06820F0F00040F08000A060B3
:1039F0008027A068696820F003000843A060FFF7F3
:103A0000E7FB814606E000BFFFF7E2FBA0EB090100
:103A100051453AD8A068696800F00C00B0EB810FFE
:103A2000F2D12868810714D5400703D5A06840F477
:103A3000E060A0602878000705D5A06820F46050F9
:103A400040F4E060A060A068A96820F0F00008439E
:103A500004E0802F03D1A06820F0F000A060D8F827
:103A60000010404601F00F01B14216D9016821F063
:103A70000F0131430160FFF7ABFB074607E000BFD2
:103A8000FFF7A6FBC11B514501D903207AE7D8F8FF
:103A9000000000F00F00B042F2D12878400705D5B1
:103AA000A068E96820F4E0600843A0602878000777
:103AB00006D5A068296920F4605040EAC100A060E2
:103AC00000F06AF8A1680C4AC1F30311515C01F0DF
:103AD0001F01C8400949086009480068BDE8F0476F
:103AE000FFF7D2BC002002400010024000B4C40422
:103AF0000024F400001BB700947700083400002075
:103B0000280000200F2202600C4A936803F0030390
:103B10004360936803F0F0038360936803F4E06309
:103B2000C36092684FF4E06303EAD2020261044882
:103B3000006800F00F0008607047000000100240AD
:103B40000020024001480068704700003400002057
:103B50000548064900688968054AC1F30221515C9D
:103B600001F01F01C84070473400002000100240DF
:103B7000A47700080548064900688968054AC1F32A
:103B8000C221515C01F01F01C84070473400002081
:103B900000100240A4770008184910B58868C0F3E7
:103BA00081021748012A0BD08A68164BC2F38102A2
:103BB000022A06D08A68C2F38102032A03D00020B9
:103BC00010BD184610BDCA6802F00304CA68C2F3EB
:103BD0000312521C032C02D0B0FBF2F001E0B3FB45
:103BE000F2F0CA68C968C2F306225043C1F34161CA
:103BF000491C4900B0FBF1F010BD0000001002406C
:103C00000024F400001BB7002DE9F84304007AD02B
:103C10002078FA4DC00747D0A868E96800F00C008A
:103C200001F003010C2802D0082817D001E0032975
:103C300014D06068B0F5803F17D0B0F5A02F286889
:103C400017D020F480302860286820F48020286075
:103C50006068E0B1FFF7BCFA064614E0286880030C
:103C600022D560680028D2D01EE0286840F4803059
:103C7000EDE740F480202860F7E700BFFFF7A8FADF
:103C8000801B642870D828688003F7D50CE0FFF704
:103C90009FFA064605E000BFFFF79AFA801B6428EA
:103CA000F0D828688003F7D4207880074CD5A8681E
:103CB000E96800F00C0001F003010C2802D0042890
:103CC0000DD001E002290AD0E068002828682BD036
:103CD00040F480702860FFF77BFA064619E02868F8
:103CE000400502D5E068002891D06868217C20F06A
:103CF000FE4040EA01606860C1480068FFF7C4FB0D
:103D0000002800D120E076E1FFF762FA801B02284C
:103D1000B8D828684005F7D56868217C20F0FE40B7
:103D200040EA016068600FE020F480702860FFF7CF
:103D30004FFA064605E000BFFFF74AFA801B02284B
:103D4000A0D828684005F7D42078000729D56069F5
:103D50000028D5F8940013D040F00100C5F8940075
:103D6000FFF736FA064606E090E000BFFFF730FAAC
:103D7000801B022886D8D5F894008007F6D510E07D
:103D800020F00100C5F89400FFF722FA064604E08F
:103D9000FFF71EFA801B022878D8D5F89400800718
:103DA000F6D42078400761D5A86D0026C00008D45D
:103DB000A86D40F08050A865A86D012600F08050E5
:103DC000009090480168C90511D40168804641F40B
:103DD00080710160FFF7FCF9074604E0FFF7F8F98E
:103DE000C01B022852D8D8F80000C005F6D5A0683C
:103DF000012815D00528D5F8900016D020F0010034
:103E0000C5F89000D5F8900020F00400C5F89000A7
:103E1000A06841F28838B8B1FFF7DAF907460EE03A
:103E2000D5F8900040F00100F0E740F00400C5F83C
:103E30009000F5E7FFF7CCF9C11B414526D8D5F82E
:103E400090008007F6D50CE0FFF7C2F9074604E0C2
:103E5000FFF7BEF9C11B414518D8D5F8900080077F
:103E6000F6D41EB1A86D20F08050A8652078800699
:103E700029D5A0690028D5F8980013D040F001009A
:103E8000C5F89800FFF7A4F9064606E077E000BF02
:103E9000FFF79EF9801B022877D8D5F89800800795
:103EA000F6D510E020F00100C5F89800FFF790F972
:103EB000064604E0FFF78CF9801B022865D8D5F888
:103EC00098008007F6D4E069F0B3A968C1F38101D6
:103ED000032961D00228286820F0807028600BD068
:103EE000E86820F00300E860E86847490840E860B7
:103EF000FFF76EF904464BE0FFF76AF9064604E067
:103F0000FFF766F9801B02283FD828688001F7D4A4
:103F1000F4E908016FF00F0202EB01110843218A56
:103F20005204490802EB4151A26841EA02210843C8
:103F3000217D4FF07E42490802EB41610843217B1D
:103F400040EAC160E96800E062E0304A114008439D
:103F5000E860286840F080702860E86840F0807071
:103F6000E860FFF735F9044605E000BFFFF730F9D8
:103F7000001B022809D828688001F7D548E004E032
:103F8000FFF726F9001B022802D90320BDE8F883B9
:103F900028688001F4D43BE00128F7D0E868226A61
:103FA00000F00301914226D1616A00F0F00209019C
:103FB000103991421FD1A26A00F4FE41B1EB022FE9
:103FC00019D194F82C2000F07841B1EBC26F12D1D6
:103FD000218E00F4C00249084905A1F50011914263
:103FE00009D194F8341000F0C06049084906A1F1E5
:103FF000007181420CD00120C8E70000001002408F
:104000002800002000700040FFFFEEFE0C809F01A2
:104010000020BBE770B5040009D0606A002540B1FC
:1040200025616561A56294F85D0040B10CE0012056
:1040300070BD6068B0F5827FF4D0E561F2E784F886
:104040005C50204600F05CF8022084F85D00206897
:10405000016821F040010160E1684FF4E0629142A3
:1040600001D9002001E04FF48050B1F5706F02D00B
:10407000914200D0A562A188228901F4827102F4E4
:1040800004421143227C02F002021143227D02F01D
:1040900001021143228B02F400721143227F02F0CD
:1040A0003802114394F8202002F080021143228D3F
:1040B00002F40052114322681160A169042202EA4D
:1040C000114194F8242000F4805002F010021143B2
:1040D00094F8342002F008021143A28902F47062BD
:1040E00011430143206841602068C16921F40061E7
:1040F000C1612566012084F85D00002070BD0000CC
:1041000010B586B0044614216846FCF72BF9124915
:10411000206888421ED11148816D41F4804181653B
:10412000816D01F480410591C16C41F00201C164CF
:10413000C06C694600F0020005904FF430400090DA
:104140000220019000200290039005200490044872
:10415000FEF70CFF06B010BD003800400010024012
:10416000000400482DE9F84F044690F85C00002751
:104170001D461646894601280DD04FF0010B84F8E4
:104180005CB0FFF725F8804694F85D00BA46012838
:1041900004D00227A4E00220BDE8F88FB9F1000F97
:1041A00074D0002E72D0032084F85D00C4F860A0A3
:1041B000C4F83890A687E687C4F840A0A4F844A0C5
:1041C000A4F846A0C4F850A0C4F84CA0A068B0F56C
:1041D000004F09D12068016821F04001016020688A
:1041E000016841F48041016020680168490603D4F8
:1041F000016841F040010160E068B0F5E06F60687F
:1042000023D908B1012E1CD1A06B21680088C86099
:1042100006E020688168890709D5A16B0988C1601B
:10422000A06B801CA063E08F401EE08709E0FEF7D2
:10423000CFFFA0EB0800A84202D3681C01D046E0E3
:10424000ADB3E08F0028E4D136E008B1012E30D1C3
:10425000E08F0128A06B03D921680088C8600FE0B7
:1042600021680078087314E0E08722E02068816804
:10427000890714D5E18F0129A16B08D90988C1608C
:10428000A06B801CA063E08F801EEDE727E009781B
:104290000173A06B401CA063E08F401EE4E7FEF7B3
:1042A00097FFA0EB0800A84202D3681C01D00EE0E3
:1042B0006DB1E08F0028D9D142462946204601F051
:1042C00093FB08B120202066A06810B105E0032709
:1042D00006E02068C16880680090206E00B1012768
:1042E00084F85DB084F85CA0384655E70248016B5D
:1042F00021F00101016370470000014003490A6B8E
:1043000022F0020202430A637047000000000140ED
:10431000704770477047704770477047F0B590F826
:104320003C20012A3AD0012580F83C50022280F836
:104330003D2003685A689C68194E1A4FB34201D059
:10434000BB4204D122F4700C4A6842EA0C02DFF846
:1043500058C002EA0C02D1F800C04CEA020CC3F8C3
:1043600004C00268B2420DD0B2F1804F0AD00F4BA8
:104370009A4207D00E4B9A4204D0BA4202D00D4B5B
:104380009A4204D1896824F080031943916080F82F
:104390003D50002180F83C100846F0BD0220F0BDE1
:1043A000002C0140003401408FFFFFFD000400405D
:1043B0000008004000400140704710B5040003D0E1
:1043C00094F83D0010B107E0012010BD002084F8F2
:1043D0003C00204600F022F8022084F83D00211D18
:1043E000206801F09FFC012084F8480084F83E001A
:1043F00084F83F0084F8400084F8410084F84200CB
:1044000084F8430084F8440084F8450084F84600AA
:1044100084F8470084F83D00002010BD08B5384AF4
:104420000168384891421ED1016E41F40061016675
:10443000006E002200F40060009005211820FFF7B4
:1044400097F81820FFF786F8002205211920FFF7BA
:104450008FF81920FFF77EF800220F211A20FFF7AE
:1044600087F81A2046E0B1F1804F11D0264A9142D8
:104470001DD1016E41F400510166006E002200F46E
:104480000050009005212C20FFF772F82C2031E01D
:10449000816D41F001018165806D002200F0010015
:1044A000009005211C20FFF763F81C2022E0174A2A
:1044B00091420ED1016E41F480310166006E0022FE
:1044C00000F48030009005211820FFF751F81820E3
:1044D00010E00F4A914211D1016E41F400310166A2
:1044E000006E002200F40030009005211920FFF733
:1044F0003FF81920BDE80840FFF72CB808BD0000C0
:10450000002C0140001002400034014000400140F6
:104510000044014090F83D10012901D0012070476E
:10452000022180F83D1000680F4988420ED0B0F19A
:10453000804F0BD00D49884208D00D49884205D0E4
:104540000C49884202D00C49884207D181680B4A45
:104550001140062906D0B1F5803F03D0016841F033
:104560000101016000207047002C01400004004060
:1045700000080040003401400040014007000100F5
:1045800090F83D10012901D001207047022180F8E8
:104590003D100168CA6842F00102CA600068104913
:1045A00088420ED0B0F1804F0BD00E49884208D01F
:1045B0000D49884205D00D49884202D00C498842F5
:1045C00007D181680B4A1140062906D0B1F5803F1A
:1045D00003D0016841F00101016000207047000034
:1045E000002C01400004004000080040003401405D
:1045F000004001400700010070B5044690F83C00FF
:104600000025012814D0012684F83C60022084F89B
:104610003D0022689068364B184020F47F4090603F
:10462000086870282ED010DC10F00F0F03D021E0A6
:104630004FF0020070BD4FEA2012072A1AD2DFE8BD
:1046400002F0525252524A3840002A4BC21A984243
:1046500049D009DCB0F5805F0DD0B0F5005F1CD00B
:10466000B0F1101F06D13EE0102A3CD0202A3AD0EB
:10467000502A38D0012584F83D60002084F83C00A1
:10468000284670BDCB68D1E90121206801F0A2FB6A
:104690002068816841F0770109E0CB68D1E9012108
:1046A000206801F097FB2068816841F480418160B7
:1046B000E1E7CA684968206801F0A0FB5021206842
:1046C00006E0CA684968206801F0A9FB60212068FB
:1046D00001F08AFBCFE7CA684968206801F08EFBC9
:1046E00040212068F4E7226801461046F0E7000008
:1046F00088FFCEFF20001000704770B504460068A8
:1047000001694FF00005C943890715D4C168C94341
:10471000890711D4E91E0161012020772068806992
:104720008007204602D0FFF7E7FF04E000F0E3F83F
:10473000204600F0E1F8257720680169C943490760
:1047400017D4C168C943490713D46FF0040101614C
:10475000022020772068806910F4407F204602D034
:10476000FFF7CAFF04E000F0C6F8204600F0C4F8E6
:10477000257720680169C943090716D4C168C94370
:10478000090712D46FF00801016104202077206826
:10479000C0698007204602D0FFF7AEFF04E000F0BA
:1047A000AAF8204600F0A8F8257720680169C943D7
:1047B000C90617D4C168C943C90613D46FF01001E4
:1047C0000161082020772068C06910F4407F2046EE
:1047D00002D0FFF791FF04E000F08DF8204600F0D2
:1047E0008BF8257720680169C943C90708D1C168DA
:1047F000C943C90704D1891E0161204600F07EF833
:1048000020680169C943090609D4C168C94309067A
:1048100005D46FF0800101612046FFF77AFD206822
:104820000169C943C90509D4C168C943090605D44A
:104830006FF4807101612046FFF76AFD206801690D
:10484000C943490609D4C168C943490605D46FF074
:1048500040010161204600F081F820680169C943E8
:10486000890609D4C168C943890605D46FF02001BF
:1048700001612046FFF74EFD20680169C943C90266
:1048800009D4C168C943C90205D46FF4801101611C
:104890002046FFF741FD20680169C943890209D418
:1048A000C168C943890205D46FF400110161204633
:1048B000FFF731FD20680169C943490209D4C16885
:1048C000C943490205D46FF4800101612046FFF716
:1048D00024FD20680169C94309020BD4C168C9439A
:1048E000090207D46FF4000101612046BDE8704061
:1048F000FFF762BD70BD70477047000010B5114AE8
:104900000168914203D1BDE81040FEF7A5BD0E49F4
:10491000884216D00D49884213D00D49884210D1E3
:104920000C4C607801280CD1A078012809D120789E
:10493000012806D10848FEF788FD00206070A070AD
:10494000207010BD004801404C0500209805002053
:104950000005002024000020F4030020704790F898
:104960008010012918D0012180F880102421C0F87E
:10497000841050F8641B0A680B6823F001030B6075
:1049800022F000510022026050F8643C196020219E
:1049900001620277104670470220704770477047E7
:1049A00070B5044690F8800001281DD0012084F8DD
:1049B00080002420C4F8840020680568026822F082
:1049C000010202602068826822F060620A4382600D
:1049D000204601F0F3FC206805602020C4F8840024
:1049E000002084F8800070BD022070BD70B50446C0
:1049F00090F8800001281DD0012084F88000242038
:104A0000C4F8840020680568026822F00102026090
:104A10002068826822F060420A438260204601F0EA
:104A2000CDFC206805602020C4F88400002084F8B4
:104A3000800070BD022070BD704770477047000055
:104A40002DE9F04103680446D86919689A6840F670
:104A50000F0528424FF0000509D186067ED501F0EA
:104A6000200602F080573E4378D0216F27E1A94EFF
:104A7000A94F16400F40374370D0C70709D0CF0564
:104A800007D501271F62D4F88C3043F00103C4F826
:104A90008C3083070AD5D30708D0276802233B62EE
:104AA000D4F88C3043F00403C4F88C3043070AD5A3
:104AB000D30708D0276804233B62D4F88C3043F036
:104AC0000203C4F88C3003070CD501F020033343F4
:104AD00008D0266808233362D4F88C3043F00803EA
:104AE000C4F88C3003050BD54B0109D526684FF46B
:104AF00000633362D4F88C3043F02003C4F88C3068
:104B0000D4F88C30002B3AD0800609D501F0200073
:104B100002F08051084303D0216F09B12046884735
:104B2000D4F88C0021688968490602D410F0280F57
:104B300027D0204601F002FD2068806840061BD582
:104B40002068083050E8001F21F0400140E80012C2
:104B5000002AF5D1E06F78B1704900E017E0816379
:104B6000E06FFDF7E9FC002809D0E06F816B00E001
:104B70002046BDE8F04108472046FFF75FFFBDE84B
:104B8000F0812046FFF75AFFC4F88C50F7E7E76E34
:104B90002026012F7ED1C7067CD5CF067AD51020DE
:104BA000186220688068400642D5E16F0868406856
:104BB0000004000CE3D0B4F85C208242DFD9A4F8F2
:104BC0005E000868006880062BD4206850E8001F4B
:104BD00021F4807140E80012002AF6D120680830E4
:104BE00050E8001F21F0010140E80012002AF5D131
:104BF0002068083050E8001F21F0400140E8001212
:104C0000002AF5D1C4F88860E566216851E8000FF4
:104C100020F0100041E80002002AF6D1E06FFDF715
:104C200056FCB4F85C00B4F85E10401A81B22CE077
:104C3000B4F85C00B4F85E10401A81B2B4F85E00BB
:104C400000289CD000299AD0226852E8000F20F456
:104C5000907042E80003002BF6D12E4BDB43206816
:104C6000083050E8002F1A4040E80027002FF6D106
:104C7000C4F88860E5662567226852E8000F20F0D6
:104C8000100042E80003002BF6D12046FFF786FE15
:104C900075E7FFE7C70209D5570207D54FF4801023
:104CA00018622046BDE8F041FFF7C7BE03060AD5EB
:104CB00001F0800302F40002134304D0616F002965
:104CC0007FF456AF5BE7420611D54A060FD5204662
:104CD000016851E8002F22F0400241E80023002B38
:104CE000F6D1C0F88460456700F09CF947E70202FE
:104CF00006D54A0004D52046BDE8F041FFF79CBE2A
:104D0000C001C5D50029C3DA2046BDE8F041FFF750
:104D100046BE0000010000102001000429650008C3
:104D200010B5040003D0D4F8840010B107E00120CE
:104D300010BD002084F88000204600F027F82420D1
:104D4000C4F884002068016821F001010160204658
:104D500001F01EFC0128EBD0A06A10B1204601F042
:104D60004FFB2068416821F49041416020688168D0
:104D700021F02A0181602068016841F00101016091
:104D80002046BDE8104001F09FBB00002DE9F04F28
:104D900097B00646142111A8FBF7E4FA44216846AF
:104DA000FBF7E0FA6D4930686D4C072700254FF09E
:104DB000904B4FF080094FF0200A4FF002088842D4
:104DC00040D10120CDE900056846FEF769FC08B135
:104DD000FCF750FB206E40F480402066206E00F40B
:104DE00080401690E06C40F00100E064E06CCDE99A
:104DF000128500F0010016904FF4C060CDE9145701
:104E0000119011A95846FEF7B1F8574C554820604B
:104E10001820C4E90105C4E9035965614FF4005045
:104E2000A561C4E907A02046FDF720FC08B1FCF706
:104E300021FBF467002205212520A662FEF798FBDE
:104E4000252041E04949884243D16846CDF8008099
:104E50000295FEF725FC08B1FCF70CFBA06D40F4B1
:104E60000030A065A06D00F400301690E06C40F0BA
:104E70000100E064E06CCDE9128500F001001690BD
:104E80000C20CDE91457119011A95846FEF76EF881
:104E9000354C34486034283020601A20C4E90105BC
:104EA000C4E903596561C4E9065A20462562FDF745
:104EB000DDFB08B1FCF7DEFAF467002205212620AD
:104EC000A662FEF755FB2620FEF744FB17B0BDE8AF
:104ED000F08F27498842F9D1042000900395684655
:104EE000FEF7DEFB08B1FCF7C5FAA06D40F48020A8
:104EF000A065A06D00F480201690E06C40F00200E8
:104F0000E064E06CCDE9128500F0020016904FF4E9
:104F10004060CDE91457119011A91648FEF726F804
:104F2000114C1048C0343C3020601C20C4E90105FD
:104F3000C4E903596561C4E9065A20462562FDF7B4
:104F400095FB08B1FCF796FAF467002205212720AB
:104F5000A662FEF70DFB2720B6E7000000380140EF
:104F6000001002401C000240940700200044004052
:104F70000048004000040048D0F88430202B47D17E
:104F800069B362B390F88030012B41D0012380F8DF
:104F900080300165A0F85420A0F856200021416718
:104FA000C0F88C102122C0F88420436E4FF4805248
:104FB000B3F1005F836814D0934201D102692AB330
:104FC000144A426780F88010026852E8001F41F0DE
:104FD000800142E80013002BF6D100207047012029
:104FE0007047934201D1026972B10B4A426780F85F
:104FF00080100168083151E8002F42F4000241E8B6
:105000000023002BF5D1E8E7044AEFE7044AD8E78C
:1050100002207047C3680008116900085968000839
:10502000056800087047FEE700EB8100006E00F0A5
:10503000F84070478068C0F3C00070478068C0F3D4
:10504000800070478068C0F380007047C06810F42B
:10505000406F01D00020704701207047042303EA0D
:10506000D15310B518444369C1F3045107248C404F
:10507000A3438A401343436110BD00EB8100016EDE
:1050800021F00041114301667047000070B58CB0FB
:10509000002408940994202168460A94FBF762F9D9
:1050A0003E484FF0A041012501604FF44021C0E986
:1050B0000114C46008210461C0E9055104774577F3
:1050C0000626066280F82440C462046380F83850E3
:1050D000C46380F840501C2141644830802180E83E
:1050E00032004838FCF760FE08B1FCF7C3F908A9A4
:1050F0002A480894FCF7A2FA08B1FCF7BBF9284843
:10510000CDE900067F20CDE902500420CDE904045A
:1051100069462248FCF7FEFA08B1FCF7ABF92148D2
:1051200000900C20019069461C48FCF7F3FA08B186
:10513000FCF7A0F91C48009012200190694617481E
:10514000FCF7E8FA08B1FCF795F918480090182028
:10515000019069461148FCF7DDFA08B1FCF78AF9BD
:10516000134800904FF48070CDE9010669460B4862
:10517000FCF7D0FA08B1FCF77DF90E4800904FF427
:10518000837001900320029069460448FCF7C2FA3C
:10519000002801D0FCF76EF90CB070BD980100201A
:1051A0000200300404006008001060320080F03E0D
:1051B000000021C3000084CB30B589B020216846AF
:1051C000FBF7D0F829482849002401604FF440211A
:1051D000C0E90114C460012508210461C0E905513A
:1051E000047745770321016280F82440C462046398
:1051F00080F83850C46380F840501C214164483026
:10520000802180E832004838FCF7CEFD08B1FCF779
:1052100031F9174800900620CDE901057F20039061
:105220000420CDE9040469461048FCF773FA08B17C
:10523000FCF720F90F4800900C20019069460B48BC
:10524000FCF768FA08B1FCF715F90B48009012203A
:10525000019069460548FCF75DFA002801D0FCF78B
:1052600009F909B030BD000000010050040200201F
:10527000002090360800900C1000C01000B58DB0D2
:1052800030216846FBF76EF811491048086008465F
:10529000FDF79AF808B1FCF7EDF800200221009123
:1052A0008DF80400CDE902018DF80500012104907C
:1052B000CDE905010246079069460548FCF7AAFFBB
:1052C000002801D0FCF7D6F80DB000BD0008005052
:1052D000300300201D4808B5816C41F00401816451
:1052E000816C01F004010091816C41F00101816445
:1052F000806C002200F00100009005210B20FEF7D9
:1053000037F90B20FEF726F9002205210C20FEF7C5
:105310002FF90C20FEF71EF9002205210D20FEF7C3
:1053200027F90D20FEF716F9002205210E20FEF7C1
:105330001FF90E20FEF70EF9002205210F20FEF7BF
:1053400017F9BDE808400F20FEF704B9001002402D
:1053500070B5134811490022C0E900128260012192
:10536000C2600174417481741123C0E905310624BF
:105370000325436200F12806C0E9074586E83200AC
:1053800008214163C0E90E12FDF75AFC002803D042
:10539000BDE87040FCF76EB870BD000000640040CE
:1053A0004403002010B5A8B014222C496846FAF72F
:1053B000C0FF0021684601F095FC294C27491422C2
:1053C0002060143105A8FAF7B4FF002105A801F008
:1053D00089FC22496060142228310AA8FAF7A9FF43
:1053E00000210AA801F07EFC1C49A06014223C3177
:1053F0000FA8FAF79EFF00210FA801F073FC1749D0
:10540000E0601422503114A8FAF793FF002114A889
:1054100001F068FC114920611422643119A8FAF7DF
:1054200088FF002119A801F05DFC0C49606114227D
:1054300078311EA8FAF77DFF00211EA801F052FC6A
:105440000649A06114228C3123A8FAF772FF0021CB
:1054500023A801F047FCE06128B010BDBC7600082D
:10546000000000202DE9F04786B014216846FAF7C5
:1054700079FF2C48C16C41F00401C164C16C01F09A
:1054800004010591C16C41F02001C164C16C01F0BF
:1054900020010591C16C41F00101C164C16C01F0B2
:1054A00001010591C16C41F00201C164C06CDFF8DB
:1054B000788000F002004FF440440590002221461D
:1054C0004046FDF77FFEDFF8649044F2602600223C
:1054D00031464846FDF776FE4FF480774FF0904A0C
:1054E000002239465046FDF76DFE0125CDE9004505
:1054F00000240294694640460394FDF737FD009668
:10550000CDE90154694648460394FDF72FFD009705
:10551000CDE90154694650460394FDF727FD06B0D6
:10552000BDE8F08700100240000800480004004871
:10553000134810B511490160124941600021012250
:10554000C0E90212016141618161C1610162FDF73F
:1055500099FE08B1FBF78EFF00210948FDF73EFEDA
:1055600008B1FBF787FF00210548FDF762FE002820
:1055700003D0BDE81040FBF77DBF10BD00540040D4
:10558000A80300209B2D80100A4810B5084901602F
:105590000021416040F6FF71C1608160FDF722FF8C
:1055A000002803D0BDE81040FBF764BF10BD000029
:1055B00000300040F4030020124810B5104901608B
:1055C0004FF48271416000214FF41062C0E9021271
:1055D0004FF480220161C0E905122022C0E90721B1
:1055E00007224162C0E90A12016308214163FEF704
:1055F00011FD002803D0BDE81040FBF73BBF10BDF4
:10560000003800400404002010B588B0002417487A
:10561000009401940294039404940594124906940E
:105620000160A921C0E901146321C0E903144461A8
:105630008461FEF7C2FE08B1FBF71CFF4FF48050F7
:10564000009069460948FEF7D7FF08B1FBF712FF43
:10565000049404A905480694FEF760FE002801D0D2
:10566000FBF708FF08B010BD004001404C050020CA
:105670000B4810B509490160A9214160002163224E
:10568000C0E90212016141618161FEF796FE0028C6
:1056900003D0BDE81040FBF7EDBE10BD0044014053
:1056A0009805002010B588B0002418480594069489
:1056B0000394049400940194134902940160A92175
:1056C000C0E9011440F2E731C0E903144461846188
:1056D000FEF773FE08B1FBF7CDFE4FF48050039048
:1056E00003A90A48FEF788FF08B1FBF7C3FE009440
:1056F0000194694605480294FEF710FE002801D087
:10570000FBF7B8FE08B010BD002C01406804002073
:1057100000B587B0002117480091019102910391D3
:10572000049105914FF0804206910260A922C0E9E0
:105730000121C722C0E903218161FEF73EFE08B1C5
:10574000FBF798FE4FF48050009069460948FEF739
:1057500053FF08B1FBF78EFE2020049080200690B6
:1057600004A90448FEF7DAFD002801D0FBF782FE09
:1057700007B000BDB404002010B588B0002418485C
:10578000059406940394049400940194134902949C
:105790000160A921C0E9011442F20F71C0E90314AC
:1057A00044618461FEF709FE08B1FBF763FE4FF424
:1057B0008050039003A90A48FEF71EFF08B1FBF7CB
:1057C00059FE00940194694605480294FEF7A6FD2F
:1057D000002801D0FBF74EFE08B010BD0034014098
:1057E00000050020184810B5164901604FF4E1315A
:1057F0004160002181600C22C160C0E90412816116
:10580000C161016241628162FFF78AFA08B1FBF768
:1058100031FE00210C48FFF7E9F808B1FBF72AFE3A
:1058200000210948FFF7BCF808B1FBF723FE064842
:10583000FFF795F8002803D0BDE81040FBF71ABE2B
:1058400010BD000000380140E4050020184810B5E4
:10585000164901604FF416514160002181600C220D
:10586000C160C0E904128161C1610162416281626B
:10587000FFF756FA08B1FBF7FDFD00210C48FFF7D2
:10588000B5F808B1FBF7F6FD00210948FFF788F8E5
:1058900008B1FBF7EFFD0648FFF761F8002803D0D9
:1058A000BDE81040FBF7E6BD10BD0000004400401D
:1058B00074060020184810B5164901604FF41651BF
:1058C0004160002181600C22C160C0E90412816145
:1058D000C161016241628162FFF722FA08B1FBF700
:1058E000C9FD00210C48FFF781F808B1FBF7C2FDA4
:1058F00000210948FFF754F808B1FBF7BBFD064843
:10590000FFF72DF8002803D0BDE81040FBF7B2BD2B
:1059100010BD00000048004004070020FEE7FEE73D
:1059200090EC020A90ED031A80ED041A30EE600A42
:10593000D0ED020AC0ED030A70EE601A70EE800A24
:1059400080ED020A70EE810AC0ED060A91ED041A9C
:10595000F4EEC10AF1EE10FA06DAB1EE411AF4EEF5
:10596000C10AF1EE10FA01D880ED061AD1ED010A54
:1059700090ED061A20EE811AD1ED000A00EE201AF1
:1059800091ED020AD1ED030A00EE211AB0EE410AB0
:10599000F4EEC00AF1EE10FA06D3F1EE600AF4EE6E
:1059A000C00AF1EE10FA01DDB0EE600A80ED070AE0
:1059B000704790ED070A70479FED070A80ED020AD5
:1059C00080ED030A80ED040A80ED050A80ED060AE9
:1059D00080ED070A704700000000000080ED010A1A
:1059E000704780ED000A7047F8B515460E460B4625
:1059F0000092044600224FF4C05100F019F888B913
:105A00003346002280212046009500F081F848B9F5
:105A1000334600224FF4C0612046009500F008F89C
:105A2000002804D0206E40F0200020660320F8BD3E
:105A30002DE9FE4F4FF0000A984617460E460446E1
:105A40000C9D8DF804A0FDF7C3FB411BA8EB0105DD
:105A5000FDF7BEFB814620684FF4C06B0C3002900E
:105A60002A480068C0EBC00000EB8000000D6843CE
:105A7000009043E05E4506D12FB9029800788DF87A
:105A800004009DF80400B8F1FF3F37D0FDF7A0FBFC
:105A9000A0EB0900A84203D215B1009858B32BE03F
:105AA0002068416821F0E00141606068B0F5827FC4
:105AB0000BD1A068B0F5004F02D0B0F5806F04D1D3
:105AC0002068016821F040010160A06AB0F5005F24
:105AD00009D12068016821F4005101602068016843
